{
  "contractName": "CrowdsaleConfig",
  "abi": [
    {
      "constant": true,
      "inputs": [],
      "name": "SALE_CAP",
      "outputs": [
        {
          "name": "",
          "type": "uint256"
        }
      ],
      "payable": false,
      "stateMutability": "view",
      "type": "function"
    },
    {
      "constant": true,
      "inputs": [],
      "name": "MIN_TOKEN_UNIT",
      "outputs": [
        {
          "name": "",
          "type": "uint256"
        }
      ],
      "payable": false,
      "stateMutability": "view",
      "type": "function"
    },
    {
      "constant": true,
      "inputs": [],
      "name": "LEGAL_EXPENSES_TOKENS",
      "outputs": [
        {
          "name": "",
          "type": "uint256"
        }
      ],
      "payable": false,
      "stateMutability": "view",
      "type": "function"
    },
    {
      "constant": true,
      "inputs": [],
      "name": "TOTAL_SUPPLY_CAP",
      "outputs": [
        {
          "name": "",
          "type": "uint256"
        }
      ],
      "payable": false,
      "stateMutability": "view",
      "type": "function"
    },
    {
      "constant": true,
      "inputs": [],
      "name": "TOKEN_DECIMALS",
      "outputs": [
        {
          "name": "",
          "type": "uint256"
        }
      ],
      "payable": false,
      "stateMutability": "view",
      "type": "function"
    },
    {
      "constant": true,
      "inputs": [],
      "name": "FOUNDERS_TOKENS",
      "outputs": [
        {
          "name": "",
          "type": "uint256"
        }
      ],
      "payable": false,
      "stateMutability": "view",
      "type": "function"
    },
    {
      "constant": true,
      "inputs": [],
      "name": "FOUNDERS_TOKENS_VESTED_2",
      "outputs": [
        {
          "name": "",
          "type": "uint256"
        }
      ],
      "payable": false,
      "stateMutability": "view",
      "type": "function"
    },
    {
      "constant": true,
      "inputs": [],
      "name": "FOUNDERS_TOKENS_VESTED_1",
      "outputs": [
        {
          "name": "",
          "type": "uint256"
        }
      ],
      "payable": false,
      "stateMutability": "view",
      "type": "function"
    },
    {
      "constant": true,
      "inputs": [],
      "name": "FOUNDATION_POOL_TOKENS",
      "outputs": [
        {
          "name": "",
          "type": "uint256"
        }
      ],
      "payable": false,
      "stateMutability": "view",
      "type": "function"
    },
    {
      "constant": true,
      "inputs": [],
      "name": "PURCHASER_MIN_CAP_USD",
      "outputs": [
        {
          "name": "",
          "type": "uint256"
        }
      ],
      "payable": false,
      "stateMutability": "view",
      "type": "function"
    },
    {
      "constant": true,
      "inputs": [],
      "name": "TOKEN_PRICE_THOUSANDTH",
      "outputs": [
        {
          "name": "",
          "type": "uint256"
        }
      ],
      "payable": false,
      "stateMutability": "view",
      "type": "function"
    },
    {
      "constant": true,
      "inputs": [],
      "name": "PURCHASER_MAX_CAP_USD",
      "outputs": [
        {
          "name": "",
          "type": "uint256"
        }
      ],
      "payable": false,
      "stateMutability": "view",
      "type": "function"
    }
  ],
  "bytecode": "0x6060604052341561000f57600080fd5b61022a8061001e6000396000f3006060604052600436106100b95763ffffffff7c01000000000000000000000000000000000000000000000000000000006000350416630b45e8db81146100be5780632803d8e5146100e35780632f3085d6146100f657806348931352146101095780635b7f415c1461011c57806365f6d6a21461012f578063769f194f1461012f57806397fdf5f21461012f5780639e43692c14610142578063adf1d4bd14610155578063f0757a9114610168578063f9ca63e81461017b575b600080fd5b34156100c957600080fd5b6100d161018e565b60405190815260200160405180910390f35b34156100ee57600080fd5b6100d161019e565b341561010157600080fd5b6100d16101aa565b341561011457600080fd5b6100d16101b9565b341561012757600080fd5b6100d16101c9565b341561013a57600080fd5b6100d16101ce565b341561014d57600080fd5b6100d16101de565b341561016057600080fd5b6100d16101ee565b341561017357600080fd5b6100d16101f3565b341561018657600080fd5b6100d16101f8565b6b0665d14f1378fde93c00000081565b670de0b6b3a764000081565b6a31a17e847807b1bc00000081565b6b1363156bbee3016d7000000081565b601281565b6b0110f837d8942a518a00000081565b6b0998b9f69d357cddda00000081565b606481565b600f81565b611388815600a165627a7a72305820088ad20891dd93abb9438000dcedbdbd89e7b67501d3ab81b46de6d0cd59c55c0029",
  "source": "pragma solidity ^0.4.18;\n\n\n/**\n * @title CrowdsaleConfig\n * @dev Holds all constants for SelfKeyCrowdsale contract\n*/\ncontract CrowdsaleConfig {\n    uint256 public constant TOKEN_DECIMALS = 18;\n    uint256 public constant MIN_TOKEN_UNIT = 10 ** uint256(TOKEN_DECIMALS);\n\n    // Initial distribution amounts\n    uint256 public constant TOTAL_SUPPLY_CAP = 6000000000 * MIN_TOKEN_UNIT;\n\n    // 33% of the total supply cap\n    uint256 public constant SALE_CAP = 1980000000 * MIN_TOKEN_UNIT;\n\n    // Minimum cap per purchaser on public sale = $100\n    uint256 public constant PURCHASER_MIN_CAP_USD = 100;\n\n    // Maximum cap per purchaser on public sale = $5,000\n    uint256 public constant PURCHASER_MAX_CAP_USD = 5000;\n\n    // approx 49.5%\n    uint256 public constant FOUNDATION_POOL_TOKENS = 2970000000 * MIN_TOKEN_UNIT;\n\n    // 5.5% Not vested\n    uint256 public constant FOUNDERS_TOKENS = 330000000 * MIN_TOKEN_UNIT;\n\n    // 5.5% Timelocked for half a year\n    uint256 public constant FOUNDERS_TOKENS_VESTED_1 = 330000000 * MIN_TOKEN_UNIT;\n\n    // 5.5% Timelocked for a year\n    uint256 public constant FOUNDERS_TOKENS_VESTED_2 = 330000000 * MIN_TOKEN_UNIT;\n\n    // 1%\n    uint256 public constant LEGAL_EXPENSES_TOKENS = 60000000 * MIN_TOKEN_UNIT;\n\n    // KEY price in USD (thousandths)\n    uint256 public constant TOKEN_PRICE_THOUSANDTH = 15;  // $0.015 per KEY\n}\n",
  "sourcePath": "/Users/edmund.to/kycchain/selfkey-token/contracts/CrowdsaleConfig.sol",
  "compiler": {
    "name": "solc",
    "version": "0.4.18+commit.9cf6e910.Emscripten.clang"
  },
  "schemaVersion": "1.0.1",
  "updatedAt": "2017-12-27T08:25:42.084Z"
}