{
  "contractName": "CrowdsaleConfig",
  "abi": [
    {
      "constant": true,
      "inputs": [],
      "name": "SALE_CAP",
      "outputs": [
        {
          "name": "",
          "type": "uint256"
        }
      ],
      "payable": false,
      "stateMutability": "view",
      "type": "function"
    },
    {
      "constant": true,
      "inputs": [],
      "name": "LEGAL_EXPENSES_TOKENS",
      "outputs": [
        {
          "name": "",
          "type": "uint256"
        }
      ],
      "payable": false,
      "stateMutability": "view",
      "type": "function"
    },
    {
      "constant": true,
      "inputs": [],
      "name": "TOTAL_SUPPLY_CAP",
      "outputs": [
        {
          "name": "",
          "type": "uint256"
        }
      ],
      "payable": false,
      "stateMutability": "view",
      "type": "function"
    },
    {
      "constant": true,
      "inputs": [],
      "name": "PURCHASE_MAX_CAP_WEI",
      "outputs": [
        {
          "name": "",
          "type": "uint256"
        }
      ],
      "payable": false,
      "stateMutability": "view",
      "type": "function"
    },
    {
      "constant": true,
      "inputs": [],
      "name": "FOUNDERS_TOKENS_VESTED",
      "outputs": [
        {
          "name": "",
          "type": "uint256"
        }
      ],
      "payable": false,
      "stateMutability": "view",
      "type": "function"
    },
    {
      "constant": true,
      "inputs": [],
      "name": "FOUNDATION_POOL_TOKENS",
      "outputs": [
        {
          "name": "",
          "type": "uint256"
        }
      ],
      "payable": false,
      "stateMutability": "view",
      "type": "function"
    },
    {
      "constant": true,
      "inputs": [],
      "name": "PRESALE_CAP",
      "outputs": [
        {
          "name": "",
          "type": "uint256"
        }
      ],
      "payable": false,
      "stateMutability": "view",
      "type": "function"
    },
    {
      "constant": true,
      "inputs": [],
      "name": "PURCHASE_MIN_CAP_WEI",
      "outputs": [
        {
          "name": "",
          "type": "uint256"
        }
      ],
      "payable": false,
      "stateMutability": "view",
      "type": "function"
    }
  ],
  "bytecode": "0x6060604052341561000f57600080fd5b6101e08061001e6000396000f30060606040526004361061008d5763ffffffff7c01000000000000000000000000000000000000000000000000000000006000350416630b45e8db81146100925780632f3085d6146100b757806348931352146100ca578063944e6324146100dd57806394cedcd3146100f05780639e43692c14610103578063bd94fafc14610116578063cf43721914610129575b600080fd5b341561009d57600080fd5b6100a561013c565b60405190815260200160405180910390f35b34156100c257600080fd5b6100a561014c565b34156100d557600080fd5b6100a561015b565b34156100e857600080fd5b6100a561016b565b34156100fb57600080fd5b6100a5610178565b341561010e57600080fd5b6100a5610188565b341561012157600080fd5b6100a5610198565b341561013457600080fd5b6100a56101a8565b6b0665d14f1378fde93c00000081565b6a31a17e847807b1bc00000081565b6b1363156bbee3016d7000000081565b6801ce97ca0f0d27120081565b6b0332e8a789bc7ef49e00000081565b6b0998b9f69d357cddda00000081565b6b051e410c0f93fe543000000081565b6703157deefb820c00815600a165627a7a723058203d4545430563f7f85a01659ada2fc7766d55262bfc70cdc63233b50f44ba2ed60029",
  "source": "pragma solidity ^0.4.18;\n\n\n/**\n * @title CrowdsaleConfig\n * @dev Holds all constants for SelfKeyCrowdsale contract\n*/\ncontract CrowdsaleConfig {\n    uint256 private constant TOKEN_DECIMALS = 18;\n    uint256 private constant MIN_UNIT = 10 ** uint256(TOKEN_DECIMALS);\n\n    // Initial distribution amounts\n    uint256 public constant TOTAL_SUPPLY_CAP = 6000000000 * MIN_UNIT;\n\n    // 33% of the total supply cap\n    uint256 public constant SALE_CAP = 1980000000 * MIN_UNIT;\n\n    // 80% of the sale cap\n    uint256 public constant PRESALE_CAP = 1584000000 * MIN_UNIT;\n\n    // approx. $100 in wei at 1 ETH = $450\n    uint256 public constant PURCHASE_MIN_CAP_WEI = 222222222000000000;\n\n    // approx. $15,000 in wei, per contributor\n    uint256 public constant PURCHASE_MAX_CAP_WEI = 33333333333000000000;\n\n    // approx 49.5%\n    uint256 public constant FOUNDATION_POOL_TOKENS = 2970000000 * MIN_UNIT;\n\n    // 1%\n    uint256 public constant LEGAL_EXPENSES_TOKENS = 60000000 * MIN_UNIT;\n\n    // 16.5%\n    uint256 public constant FOUNDERS_TOKENS_VESTED = 990000000 * MIN_UNIT;\n}\n",
  "sourcePath": "/Users/edmund.to/kycchain/selfkey-token/contracts/CrowdsaleConfig.sol",
  "compiler": {
    "name": "solc",
    "version": "0.4.18+commit.9cf6e910.Emscripten.clang"
  },
  "schemaVersion": "1.0.1",
  "updatedAt": "2017-12-22T07:24:22.753Z"
}