{
  "contractName": "KYCRefundVault",
  "abi": [
    {
      "constant": false,
      "inputs": [
        {
          "name": "investor",
          "type": "address"
        }
      ],
      "name": "enableKYCRefund",
      "outputs": [],
      "payable": false,
      "stateMutability": "nonpayable",
      "type": "function"
    },
    {
      "constant": false,
      "inputs": [],
      "name": "close",
      "outputs": [],
      "payable": false,
      "stateMutability": "nonpayable",
      "type": "function"
    },
    {
      "constant": true,
      "inputs": [],
      "name": "wallet",
      "outputs": [
        {
          "name": "",
          "type": "address"
        }
      ],
      "payable": false,
      "stateMutability": "view",
      "type": "function"
    },
    {
      "constant": true,
      "inputs": [],
      "name": "refundableTotal",
      "outputs": [
        {
          "name": "",
          "type": "uint256"
        }
      ],
      "payable": false,
      "stateMutability": "view",
      "type": "function"
    },
    {
      "constant": false,
      "inputs": [],
      "name": "enableRefunds",
      "outputs": [],
      "payable": false,
      "stateMutability": "nonpayable",
      "type": "function"
    },
    {
      "constant": true,
      "inputs": [],
      "name": "owner",
      "outputs": [
        {
          "name": "",
          "type": "address"
        }
      ],
      "payable": false,
      "stateMutability": "view",
      "type": "function"
    },
    {
      "constant": true,
      "inputs": [],
      "name": "state",
      "outputs": [
        {
          "name": "",
          "type": "uint8"
        }
      ],
      "payable": false,
      "stateMutability": "view",
      "type": "function"
    },
    {
      "constant": true,
      "inputs": [
        {
          "name": "",
          "type": "address"
        }
      ],
      "name": "deposited",
      "outputs": [
        {
          "name": "",
          "type": "uint256"
        }
      ],
      "payable": false,
      "stateMutability": "view",
      "type": "function"
    },
    {
      "constant": true,
      "inputs": [
        {
          "name": "",
          "type": "address"
        }
      ],
      "name": "toRefund",
      "outputs": [
        {
          "name": "",
          "type": "uint256"
        }
      ],
      "payable": false,
      "stateMutability": "view",
      "type": "function"
    },
    {
      "constant": true,
      "inputs": [
        {
          "name": "",
          "type": "address"
        }
      ],
      "name": "refundEnabled",
      "outputs": [
        {
          "name": "",
          "type": "bool"
        }
      ],
      "payable": false,
      "stateMutability": "view",
      "type": "function"
    },
    {
      "constant": false,
      "inputs": [
        {
          "name": "newOwner",
          "type": "address"
        }
      ],
      "name": "transferOwnership",
      "outputs": [],
      "payable": false,
      "stateMutability": "nonpayable",
      "type": "function"
    },
    {
      "constant": false,
      "inputs": [
        {
          "name": "investor",
          "type": "address"
        }
      ],
      "name": "deposit",
      "outputs": [],
      "payable": true,
      "stateMutability": "payable",
      "type": "function"
    },
    {
      "constant": false,
      "inputs": [
        {
          "name": "investor",
          "type": "address"
        }
      ],
      "name": "refund",
      "outputs": [],
      "payable": false,
      "stateMutability": "nonpayable",
      "type": "function"
    },
    {
      "inputs": [
        {
          "name": "_wallet",
          "type": "address"
        }
      ],
      "payable": false,
      "stateMutability": "nonpayable",
      "type": "constructor"
    },
    {
      "anonymous": false,
      "inputs": [
        {
          "indexed": false,
          "name": "investor",
          "type": "address"
        },
        {
          "indexed": false,
          "name": "_funds",
          "type": "uint256"
        }
      ],
      "name": "RefundEnabled",
      "type": "event"
    },
    {
      "anonymous": false,
      "inputs": [],
      "name": "Closed",
      "type": "event"
    },
    {
      "anonymous": false,
      "inputs": [],
      "name": "RefundsEnabled",
      "type": "event"
    },
    {
      "anonymous": false,
      "inputs": [
        {
          "indexed": true,
          "name": "beneficiary",
          "type": "address"
        },
        {
          "indexed": false,
          "name": "weiAmount",
          "type": "uint256"
        }
      ],
      "name": "Refunded",
      "type": "event"
    },
    {
      "anonymous": false,
      "inputs": [
        {
          "indexed": true,
          "name": "previousOwner",
          "type": "address"
        },
        {
          "indexed": true,
          "name": "newOwner",
          "type": "address"
        }
      ],
      "name": "OwnershipTransferred",
      "type": "event"
    }
  ],
  "bytecode": "0x60606040526000600555341561001457600080fd5b6040516020806108ca8339810160405280805160008054600160a060020a03191633600160a060020a03908116919091179091559092508291508116151561005b57600080fd5b60028054600160a060020a031916600160a060020a03929092169190911760a060020a60ff021916905550610835806100956000396000f3006060604052600436106100c45763ffffffff7c01000000000000000000000000000000000000000000000000000000006000350416630944de7a81146100c957806343d726d6146100ea578063521eb273146100fd578063834620521461012c5780638c52dc41146101515780638da5cb5b14610164578063c19d93fb14610177578063cb13cddb146101ae578063ccc7139c146101cd578063d7ef9ff7146101ec578063f2fde38b1461021f578063f340fa011461023e578063fa89401a14610252575b600080fd5b34156100d457600080fd5b6100e8600160a060020a0360043516610271565b005b34156100f557600080fd5b6100e861037c565b341561010857600080fd5b61011061046c565b604051600160a060020a03909116815260200160405180910390f35b341561013757600080fd5b61013f61047b565b60405190815260200160405180910390f35b341561015c57600080fd5b6100e8610481565b341561016f57600080fd5b610110610512565b341561018257600080fd5b61018a610521565b6040518082600281111561019a57fe5b60ff16815260200191505060405180910390f35b34156101b957600080fd5b61013f600160a060020a0360043516610531565b34156101d857600080fd5b61013f600160a060020a0360043516610543565b34156101f757600080fd5b61020b600160a060020a0360043516610555565b604051901515815260200160405180910390f35b341561022a57600080fd5b6100e8600160a060020a036004351661056a565b6100e8600160a060020a0360043516610605565b341561025d57600080fd5b6100e8600160a060020a0360043516610689565b60005433600160a060020a0390811691161461028c57600080fd5b600160a060020a0381166000908152600360209081526040808320805460ff191660019081179091558252808320546004909252909120546102d39163ffffffff6107e116565b600160a060020a03821660009081526004602090815260408083209390935560019052205460055461030a9163ffffffff6107e116565b600555600160a060020a0381166000908152600160209081526040808320839055600490915290819020547f33fe97c80846d73581b45d16d271c783aece90180a00e06959a979923c1200019183919051600160a060020a03909216825260208201526040908101905180910390a150565b60005433600160a060020a0390811691161461039757600080fd5b60006002805460a060020a900460ff16908111156103b157fe5b146103bb57600080fd5b6002805474ff00000000000000000000000000000000000000001916740200000000000000000000000000000000000000001790557f1cdde67b72a90f19919ac732a437ac2f7a10fc128d28c2a6e525d89ce5cd9d3a60405160405180910390a1600254600554600160a060020a03918216916108fc91610445913016319063ffffffff6107f716565b9081150290604051600060405180830381858888f19350505050151561046a57600080fd5b565b600254600160a060020a031681565b60055481565b60005433600160a060020a0390811691161461049c57600080fd5b60006002805460a060020a900460ff16908111156104b657fe5b146104c057600080fd5b6002805474ff0000000000000000000000000000000000000000191660a060020a1790557f599d8e5a83cffb867d051598c4d70e805d59802d8081c1c7d6dffc5b6aca2b8960405160405180910390a1565b600054600160a060020a031681565b60025460a060020a900460ff1681565b60016020526000908152604090205481565b60046020526000908152604090205481565b60036020526000908152604090205460ff1681565b60005433600160a060020a0390811691161461058557600080fd5b600160a060020a038116151561059a57600080fd5b600054600160a060020a0380831691167f8be0079c531659141344cd1fd0a4f28419497f9722a3daafe3b4186f6b6457e060405160405180910390a36000805473ffffffffffffffffffffffffffffffffffffffff1916600160a060020a0392909216919091179055565b60005433600160a060020a0390811691161461062057600080fd5b60006002805460a060020a900460ff169081111561063a57fe5b1461064457600080fd5b600160a060020a03811660009081526001602052604090205461066d903463ffffffff6107e116565b600160a060020a03909116600090815260016020526040902055565b600060016002805460a060020a900460ff16908111156106a557fe5b14806106c95750600160a060020a03821660009081526003602052604090205460ff165b15156106d457600080fd5b60016002805460a060020a900460ff16908111156106ee57fe5b14156107135750600160a060020a03811660009081526001602052604090205461076f565b50600160a060020a038116600090815260046020526040902054600554610740908263ffffffff6107f716565b600555600160a060020a0382166000908152600360209081526040808320805460ff1916905560049091528120555b600160a060020a03821681156108fc0282604051600060405180830381858888f1935050505015156107a057600080fd5b81600160a060020a03167fd7dee2702d63ad89917b6a4da9981c90c4d24f8c2bdfd64c604ecae57d8d06518260405190815260200160405180910390a25050565b6000828201838110156107f057fe5b9392505050565b60008282111561080357fe5b509003905600a165627a7a7230582005c960394615c6554b1fce3839a0692296e8f02bb9c7eb427a0f30d8656558640029",
  "source": "pragma solidity ^0.4.18;\n\nimport 'zeppelin-solidity/contracts/crowdsale/RefundVault.sol';\n\n\n/**\n * @title KYCRefundVault\n * @dev RefundVault for refunding on KYC fail cases,\n *      regardless of refunds being \"enabled\" or not.\n */\ncontract KYCRefundVault is RefundVault {\n    using SafeMath for uint256;\n\n    mapping(address => bool) public refundEnabled;\n    mapping(address => uint256) public toRefund;\n    uint256 public refundableTotal = 0;\n\n    event RefundEnabled(address investor, uint256 _funds);\n\n    /**\n     * @dev ForcedRefundVault contract constructor\n     * @param _wallet — what's this do?\n     */\n    // solhint-disable-next-line no-empty-blocks\n    function KYCRefundVault(address _wallet) public RefundVault(_wallet) {}\n\n    /**\n    * @dev Enables a particular address to be able to claim a refund\n    *      This function is called on KYC rejection\n    */\n    function enableKYCRefund(address investor) public onlyOwner {\n        refundEnabled[investor] = true;\n        toRefund[investor] = toRefund[investor].add(deposited[investor]);\n        refundableTotal = refundableTotal.add(deposited[investor]);\n        deposited[investor] = 0;\n        RefundEnabled(investor, toRefund[investor]);\n    }\n\n    /**\n     * @dev Overrides RefundVault.refund function\n     *      allowing enabled (KYC-rejected) participants to claim a refund\n     * @param investor — An investor to be refunded.\n     */\n    function refund(address investor) public {\n        require(state == State.Refunding || refundEnabled[investor]);\n\n        uint256 depositedValue;\n\n        if (state == State.Refunding) {\n            depositedValue = deposited[investor];\n        } else {\n            depositedValue = toRefund[investor];\n            refundableTotal = refundableTotal.sub(depositedValue);\n            refundEnabled[investor] = false;\n            toRefund[investor] = 0;\n        }\n\n        investor.transfer(depositedValue);\n        Refunded(investor, depositedValue);\n    }\n\n    /**\n     * @dev Overrides RefundVault.close function\n     *      to take into account ETH still held for KYC refunds\n     */\n    function close() public onlyOwner {\n        require(state == State.Active);\n        state = State.Closed;\n        Closed();\n        // transfers funds except for ETH still kept for KYC refunds\n        wallet.transfer(this.balance.sub(refundableTotal));\n    }\n}\n",
  "sourcePath": "/Users/edmund.to/kycchain/selfkey-token/contracts/KYCRefundVault.sol",
  "compiler": {
    "name": "solc",
    "version": "0.4.18+commit.9cf6e910.Emscripten.clang"
  },
  "schemaVersion": "1.0.1",
  "updatedAt": "2017-12-27T08:25:42.085Z"
}