{
  "contractName": "SelfKeyCrowdsale",
  "abi": [
    {
      "constant": false,
      "inputs": [
        {
          "name": "beneficiary",
          "type": "address"
        },
        {
          "name": "weiContribution",
          "type": "uint256"
        },
        {
          "name": "bonusFactor",
          "type": "uint256"
        },
        {
          "name": "vestingPeriod",
          "type": "uint64"
        }
      ],
      "name": "addPrecommitment",
      "outputs": [],
      "payable": false,
      "stateMutability": "nonpayable",
      "type": "function"
    },
    {
      "constant": true,
      "inputs": [],
      "name": "SALE_CAP",
      "outputs": [
        {
          "name": "",
          "type": "uint256"
        }
      ],
      "payable": false,
      "stateMutability": "view",
      "type": "function"
    },
    {
      "constant": true,
      "inputs": [],
      "name": "legalExpensesWallet",
      "outputs": [
        {
          "name": "",
          "type": "address"
        }
      ],
      "payable": false,
      "stateMutability": "view",
      "type": "function"
    },
    {
      "constant": true,
      "inputs": [],
      "name": "rate",
      "outputs": [
        {
          "name": "",
          "type": "uint256"
        }
      ],
      "payable": false,
      "stateMutability": "view",
      "type": "function"
    },
    {
      "constant": true,
      "inputs": [],
      "name": "LEGAL_EXPENSES_TOKENS",
      "outputs": [
        {
          "name": "",
          "type": "uint256"
        }
      ],
      "payable": false,
      "stateMutability": "view",
      "type": "function"
    },
    {
      "constant": true,
      "inputs": [],
      "name": "endTime",
      "outputs": [
        {
          "name": "",
          "type": "uint64"
        }
      ],
      "payable": false,
      "stateMutability": "view",
      "type": "function"
    },
    {
      "constant": false,
      "inputs": [
        {
          "name": "participant",
          "type": "address"
        }
      ],
      "name": "verifyKYC",
      "outputs": [],
      "payable": false,
      "stateMutability": "nonpayable",
      "type": "function"
    },
    {
      "constant": true,
      "inputs": [
        {
          "name": "",
          "type": "address"
        }
      ],
      "name": "vestedTokens",
      "outputs": [
        {
          "name": "",
          "type": "address"
        }
      ],
      "payable": false,
      "stateMutability": "view",
      "type": "function"
    },
    {
      "constant": true,
      "inputs": [],
      "name": "goal",
      "outputs": [
        {
          "name": "",
          "type": "uint256"
        }
      ],
      "payable": false,
      "stateMutability": "view",
      "type": "function"
    },
    {
      "constant": true,
      "inputs": [],
      "name": "weiRaised",
      "outputs": [
        {
          "name": "",
          "type": "uint256"
        }
      ],
      "payable": false,
      "stateMutability": "view",
      "type": "function"
    },
    {
      "constant": true,
      "inputs": [],
      "name": "presaleRate",
      "outputs": [
        {
          "name": "",
          "type": "uint256"
        }
      ],
      "payable": false,
      "stateMutability": "view",
      "type": "function"
    },
    {
      "constant": true,
      "inputs": [],
      "name": "TOTAL_SUPPLY_CAP",
      "outputs": [
        {
          "name": "",
          "type": "uint256"
        }
      ],
      "payable": false,
      "stateMutability": "view",
      "type": "function"
    },
    {
      "constant": false,
      "inputs": [],
      "name": "finalize",
      "outputs": [],
      "payable": false,
      "stateMutability": "nonpayable",
      "type": "function"
    },
    {
      "constant": true,
      "inputs": [],
      "name": "wallet",
      "outputs": [
        {
          "name": "",
          "type": "address"
        }
      ],
      "payable": false,
      "stateMutability": "view",
      "type": "function"
    },
    {
      "constant": false,
      "inputs": [],
      "name": "releaseLockFounders",
      "outputs": [],
      "payable": false,
      "stateMutability": "nonpayable",
      "type": "function"
    },
    {
      "constant": true,
      "inputs": [],
      "name": "foundersPool",
      "outputs": [
        {
          "name": "",
          "type": "address"
        }
      ],
      "payable": false,
      "stateMutability": "view",
      "type": "function"
    },
    {
      "constant": true,
      "inputs": [],
      "name": "startTime",
      "outputs": [
        {
          "name": "",
          "type": "uint64"
        }
      ],
      "payable": false,
      "stateMutability": "view",
      "type": "function"
    },
    {
      "constant": true,
      "inputs": [],
      "name": "goalReached",
      "outputs": [
        {
          "name": "",
          "type": "bool"
        }
      ],
      "payable": false,
      "stateMutability": "view",
      "type": "function"
    },
    {
      "constant": true,
      "inputs": [],
      "name": "isFinalized",
      "outputs": [
        {
          "name": "",
          "type": "bool"
        }
      ],
      "payable": false,
      "stateMutability": "view",
      "type": "function"
    },
    {
      "constant": true,
      "inputs": [],
      "name": "owner",
      "outputs": [
        {
          "name": "",
          "type": "address"
        }
      ],
      "payable": false,
      "stateMutability": "view",
      "type": "function"
    },
    {
      "constant": true,
      "inputs": [],
      "name": "PURCHASE_MAX_CAP_WEI",
      "outputs": [
        {
          "name": "",
          "type": "uint256"
        }
      ],
      "payable": false,
      "stateMutability": "view",
      "type": "function"
    },
    {
      "constant": true,
      "inputs": [],
      "name": "FOUNDERS_TOKENS_VESTED",
      "outputs": [
        {
          "name": "",
          "type": "uint256"
        }
      ],
      "payable": false,
      "stateMutability": "view",
      "type": "function"
    },
    {
      "constant": true,
      "inputs": [
        {
          "name": "",
          "type": "address"
        }
      ],
      "name": "lockedBalance",
      "outputs": [
        {
          "name": "",
          "type": "uint256"
        }
      ],
      "payable": false,
      "stateMutability": "view",
      "type": "function"
    },
    {
      "constant": true,
      "inputs": [],
      "name": "FOUNDATION_POOL_TOKENS",
      "outputs": [
        {
          "name": "",
          "type": "uint256"
        }
      ],
      "payable": false,
      "stateMutability": "view",
      "type": "function"
    },
    {
      "constant": true,
      "inputs": [],
      "name": "timelockFounders",
      "outputs": [
        {
          "name": "",
          "type": "address"
        }
      ],
      "payable": false,
      "stateMutability": "view",
      "type": "function"
    },
    {
      "constant": true,
      "inputs": [
        {
          "name": "",
          "type": "address"
        }
      ],
      "name": "kycVerified",
      "outputs": [
        {
          "name": "",
          "type": "bool"
        }
      ],
      "payable": false,
      "stateMutability": "view",
      "type": "function"
    },
    {
      "constant": false,
      "inputs": [],
      "name": "claimRefund",
      "outputs": [],
      "payable": false,
      "stateMutability": "nonpayable",
      "type": "function"
    },
    {
      "constant": true,
      "inputs": [],
      "name": "PRESALE_CAP",
      "outputs": [
        {
          "name": "",
          "type": "uint256"
        }
      ],
      "payable": false,
      "stateMutability": "view",
      "type": "function"
    },
    {
      "constant": false,
      "inputs": [
        {
          "name": "participant",
          "type": "address"
        }
      ],
      "name": "rejectKYC",
      "outputs": [],
      "payable": false,
      "stateMutability": "nonpayable",
      "type": "function"
    },
    {
      "constant": true,
      "inputs": [],
      "name": "PURCHASE_MIN_CAP_WEI",
      "outputs": [
        {
          "name": "",
          "type": "uint256"
        }
      ],
      "payable": false,
      "stateMutability": "view",
      "type": "function"
    },
    {
      "constant": false,
      "inputs": [
        {
          "name": "participant",
          "type": "address"
        }
      ],
      "name": "releaseLock",
      "outputs": [],
      "payable": false,
      "stateMutability": "nonpayable",
      "type": "function"
    },
    {
      "constant": true,
      "inputs": [
        {
          "name": "",
          "type": "address"
        }
      ],
      "name": "weiContributed",
      "outputs": [
        {
          "name": "",
          "type": "uint256"
        }
      ],
      "payable": false,
      "stateMutability": "view",
      "type": "function"
    },
    {
      "constant": true,
      "inputs": [],
      "name": "totalPurchased",
      "outputs": [
        {
          "name": "",
          "type": "uint256"
        }
      ],
      "payable": false,
      "stateMutability": "view",
      "type": "function"
    },
    {
      "constant": true,
      "inputs": [],
      "name": "lockedTotal",
      "outputs": [
        {
          "name": "",
          "type": "uint256"
        }
      ],
      "payable": false,
      "stateMutability": "view",
      "type": "function"
    },
    {
      "constant": false,
      "inputs": [
        {
          "name": "newOwner",
          "type": "address"
        }
      ],
      "name": "transferOwnership",
      "outputs": [],
      "payable": false,
      "stateMutability": "nonpayable",
      "type": "function"
    },
    {
      "constant": true,
      "inputs": [],
      "name": "foundationPool",
      "outputs": [
        {
          "name": "",
          "type": "address"
        }
      ],
      "payable": false,
      "stateMutability": "view",
      "type": "function"
    },
    {
      "constant": true,
      "inputs": [],
      "name": "vault",
      "outputs": [
        {
          "name": "",
          "type": "address"
        }
      ],
      "payable": false,
      "stateMutability": "view",
      "type": "function"
    },
    {
      "constant": true,
      "inputs": [],
      "name": "token",
      "outputs": [
        {
          "name": "",
          "type": "address"
        }
      ],
      "payable": false,
      "stateMutability": "view",
      "type": "function"
    },
    {
      "inputs": [
        {
          "name": "_startTime",
          "type": "uint64"
        },
        {
          "name": "_endTime",
          "type": "uint64"
        },
        {
          "name": "_rate",
          "type": "uint256"
        },
        {
          "name": "_presaleRate",
          "type": "uint256"
        },
        {
          "name": "_wallet",
          "type": "address"
        },
        {
          "name": "_foundationPool",
          "type": "address"
        },
        {
          "name": "_foundersPool",
          "type": "address"
        },
        {
          "name": "_legalExpensesWallet",
          "type": "address"
        },
        {
          "name": "_goal",
          "type": "uint256"
        }
      ],
      "payable": false,
      "stateMutability": "nonpayable",
      "type": "constructor"
    },
    {
      "payable": true,
      "stateMutability": "payable",
      "type": "fallback"
    },
    {
      "anonymous": false,
      "inputs": [
        {
          "indexed": true,
          "name": "purchaser",
          "type": "address"
        },
        {
          "indexed": true,
          "name": "beneficiary",
          "type": "address"
        },
        {
          "indexed": false,
          "name": "value",
          "type": "uint256"
        },
        {
          "indexed": false,
          "name": "amount",
          "type": "uint256"
        }
      ],
      "name": "TokenPurchase",
      "type": "event"
    },
    {
      "anonymous": false,
      "inputs": [
        {
          "indexed": true,
          "name": "participant",
          "type": "address"
        }
      ],
      "name": "VerifiedKYC",
      "type": "event"
    },
    {
      "anonymous": false,
      "inputs": [
        {
          "indexed": true,
          "name": "participant",
          "type": "address"
        }
      ],
      "name": "RejectedKYC",
      "type": "event"
    },
    {
      "anonymous": false,
      "inputs": [
        {
          "indexed": true,
          "name": "participant",
          "type": "address"
        },
        {
          "indexed": false,
          "name": "contribution",
          "type": "uint256"
        },
        {
          "indexed": false,
          "name": "bonusFactor",
          "type": "uint256"
        },
        {
          "indexed": false,
          "name": "_rate",
          "type": "uint256"
        },
        {
          "indexed": false,
          "name": "vestingMonths",
          "type": "uint64"
        }
      ],
      "name": "AddedPrecommitment",
      "type": "event"
    },
    {
      "anonymous": false,
      "inputs": [],
      "name": "Finalized",
      "type": "event"
    },
    {
      "anonymous": false,
      "inputs": [
        {
          "indexed": true,
          "name": "previousOwner",
          "type": "address"
        },
        {
          "indexed": true,
          "name": "newOwner",
          "type": "address"
        }
      ],
      "name": "OwnershipTransferred",
      "type": "event"
    }
  ],
  "bytecode": "0x6060604052600060088190556009556010805460ff1916905534156200002457600080fd5b6040516101208062003d4983398101604052808051919060200180519190602001805191906020018051919060200180519190602001805191906020018051919060200180519190602001805160008054600160a060020a03191633600160a060020a031617815590925090506001604060020a038a8116908a1611620000aa57600080fd5b60008811620000b857600080fd5b600160a060020a0386161515620000ce57600080fd5b6b1363156bbee3016d70000000620000e56200055a565b908152602001604051809103906000f08015156200010257600080fd5b60028054600160a060020a031916600160a060020a039283161790819055166340c10f19306b1363156bbee3016d700000006000604051602001526040517c010000000000000000000000000000000000000000000000000000000063ffffffff8516028152600160a060020a0390921660048301526024820152604401602060405180830381600087803b15156200019a57600080fd5b6102c65a03f11515620001ac57600080fd5b50505060405180515050600254600160a060020a0316637d64bcb46000604051602001526040518163ffffffff167c0100000000000000000000000000000000000000000000000000000000028152600401602060405180830381600087803b15156200021857600080fd5b6102c65a03f115156200022a57600080fd5b505050604051805150506002805460a060020a60e060020a031916740100000000000000000000000000000000000000006001604060020a038d811691909102919091179091556003805467ffffffffffffffff1916918b169190911790556004889055600587905560018054600160a060020a031916600160a060020a038881169190911791829055600784905516620002c46200056b565b600160a060020a039091168152602001604051809103906000f0801515620002eb57600080fd5b60148054600160a060020a0319908116600160a060020a03938416179091556010805461010060a860020a03191661010089851602179055601180548216878416179081905560128054909216868416179091556002547401000000000000000000000000000000000000000081046001604060020a03166301e2850001935082169116826200037a6200057c565b600160a060020a0393841681529190921660208201526001604060020a0390911660408083019190915260609091019051809103906000f0801515620003bf57600080fd5b60138054600160a060020a031916600160a060020a0392909216919091179055620003f76401000000006200040781026200196d1704565b505050505050505050506200058d565b6010546002546200044691600160a060020a0391821691610100909104166b0998b9f69d357cddda000000640100000000620012a8620004b982021704565b6013546002546200047f91600160a060020a0391821691166b0332e8a789bc7ef49e000000640100000000620012a8620004b982021704565b601254600254620004b791600160a060020a0391821691166a31a17e847807b1bc000000640100000000620012a8620004b982021704565b565b82600160a060020a031663a9059cbb83836000604051602001526040517c010000000000000000000000000000000000000000000000000000000063ffffffff8516028152600160a060020a0390921660048301526024820152604401602060405180830381600087803b15156200053057600080fd5b6102c65a03f115156200054257600080fd5b5050506040518051905015156200055557fe5b505050565b604051610ded806200232d83390190565b6040516108ca806200311a83390190565b60405161036580620039e483390190565b611d90806200059d6000396000f3006060604052600436106101be5763ffffffff60e060020a60003504166305dcd36981146101c95780630b45e8db146101fb5780631ea349c0146102205780632c4e722e1461024f5780632f3085d6146102625780633197cbb61461027557806338d16011146102a55780633dee0397146102c457806340193883146102e35780634042b66f146102f657806342f3938114610309578063489313521461031c5780634bb278f31461032f578063521eb2731461034257806361f0b93014610355578063766b640c1461036857806378e979251461037b5780637d3d65221461038e5780638d4e4083146103b55780638da5cb5b146103c8578063944e6324146103db57806394cedcd3146103ee5780639ae697bf146104015780639e43692c14610420578063a2a8250514610433578063a5410a6614610446578063b5545a3c14610465578063bd94fafc14610478578063c42e58881461048b578063cf437219146104aa578063d1c46916146104bd578063d5307b0c146104dc578063e632c2f3146104fb578063f145c73b1461050e578063f2fde38b14610521578063f907f5fc14610540578063fbfa77cf14610553578063fc0c546a14610566575b6101c733610579565b005b34156101d457600080fd5b6101c7600160a060020a036004351660243560443567ffffffffffffffff606435166107a3565b341561020657600080fd5b61020e610ac8565b60405190815260200160405180910390f35b341561022b57600080fd5b610233610ad8565b604051600160a060020a03909116815260200160405180910390f35b341561025a57600080fd5b61020e610ae7565b341561026d57600080fd5b61020e610aed565b341561028057600080fd5b610288610afc565b60405167ffffffffffffffff909116815260200160405180910390f35b34156102b057600080fd5b6101c7600160a060020a0360043516610b0c565b34156102cf57600080fd5b610233600160a060020a0360043516610bbf565b34156102ee57600080fd5b61020e610bda565b341561030157600080fd5b61020e610be0565b341561031457600080fd5b61020e610be6565b341561032757600080fd5b61020e610bec565b341561033a57600080fd5b6101c7610bfc565b341561034d57600080fd5b610233610c72565b341561036057600080fd5b6101c7610c81565b341561037357600080fd5b610233610cd1565b341561038657600080fd5b610288610ce0565b341561039957600080fd5b6103a1610cf7565b604051901515815260200160405180910390f35b34156103c057600080fd5b6103a1610d03565b34156103d357600080fd5b610233610d0c565b34156103e657600080fd5b61020e610d1b565b34156103f957600080fd5b61020e610d28565b341561040c57600080fd5b61020e600160a060020a0360043516610d38565b341561042b57600080fd5b61020e610d4a565b341561043e57600080fd5b610233610d5a565b341561045157600080fd5b6103a1600160a060020a0360043516610d69565b341561047057600080fd5b6101c7610d7e565b341561048357600080fd5b61020e610e6b565b341561049657600080fd5b6101c7600160a060020a0360043516610e7b565b34156104b557600080fd5b61020e611051565b34156104c857600080fd5b6101c7600160a060020a036004351661105d565b34156104e757600080fd5b61020e600160a060020a03600435166110f2565b341561050657600080fd5b61020e611104565b341561051957600080fd5b61020e61110a565b341561052c57600080fd5b6101c7600160a060020a0360043516611110565b341561054b57600080fd5b6102336111ab565b341561055e57600080fd5b6102336111bf565b341561057157600080fd5b6102336111ce565b600080600160a060020a038316151561059157600080fd5b60105460ff16156105a157600080fd5b3491508115156105b057600080fd5b6105b9836111dd565b15156105c457600080fd5b6004546105d890839063ffffffff61126316565b60025490915060a060020a900467ffffffffffffffff1642101561066057600160a060020a0383166000908152600a602052604090205460ff16151561061d57600080fd5b60055461063190839063ffffffff61126316565b6008549091506b051e410c0f93fe543000000090610655908363ffffffff61129916565b111561066057600080fd5b6008546b0665d14f1378fde93c00000090610681908363ffffffff61129916565b111561068c57600080fd5b60065461069f908363ffffffff61129916565b600655600160a060020a0383166000908152600c60205260409020546106cb908363ffffffff61129916565b600160a060020a0384166000908152600c60205260409020556008546106f7908263ffffffff61129916565b600855600160a060020a0383166000908152600a602052604090205460ff161561073d5760025461073890600160a060020a0316848363ffffffff6112a816565b610747565b6107478382611328565b82600160a060020a031633600160a060020a03167f623b3804fa71d67900d064613da8f94b9617215ee90799290593e1745087ad18848460405191825260208201526040908101905180910390a361079e83611410565b505050565b600080548190819081908190819033600160a060020a039081169116146107c957600080fd5b60025460a060020a900467ffffffffffffffff1642106107e857600080fd5b60105460ff16156107f857600080fd5b600088101561080657600080fd5b600067ffffffffffffffff8816101561081e57600080fd5b600160a060020a038a166000908152600a60205260408120805460ff19166001179055891115610abc5761088061087160646108658b60045461126390919063ffffffff16565b9063ffffffff61147116565b6004549063ffffffff61129916565b60085490965089870295506b051e410c0f93fe5430000000906108a9908763ffffffff61129916565b11156108b457600080fd5b6006546108c7908a63ffffffff61129916565b600655600160a060020a038a166000908152600c60205260409020546108f3908a63ffffffff61129916565b600160a060020a038b166000908152600c602052604090205560085461091f908663ffffffff61129916565b60085567ffffffffffffffff871615156109555760025461095090600160a060020a03168b8763ffffffff6112a816565b610a58565b62278d008702935061096e85600263ffffffff61147116565b60025490935067ffffffffffffffff60a060020a82041685019250600160a060020a03168a8361099c611920565b600160a060020a03938416815291909216602082015267ffffffffffffffff90911660408083019190915260609091019051809103906000f08015156109e157600080fd5b600160a060020a038b81166000908152600f60205260409020805473ffffffffffffffffffffffffffffffffffffffff1916838316179055600254919250610a2b91168b856112a8565b610a5881610a3f878663ffffffff61148816565b600254600160a060020a0316919063ffffffff6112a816565b89600160a060020a03167f09552019d49d045803483d3fd58c2a91a853a3dcb59cab03878cc0857da78d198a8a898b604051938452602084019290925260408084019190915267ffffffffffffffff90911660608301526080909101905180910390a25b50505050505050505050565b6b0665d14f1378fde93c00000081565b601254600160a060020a031681565b60045481565b6a31a17e847807b1bc00000081565b60035467ffffffffffffffff1681565b6000805433600160a060020a03908116911614610b2857600080fd5b600160a060020a0382166000908152600a60209081526040808320805460ff19166001179055600b9091528120541115610b8557610b658261149a565b600254909150610b8590600160a060020a0316838363ffffffff6112a816565b81600160a060020a03167f98cc2c535b6060b431d35630893358290dcd38687f6487e2882d33195502080560405160405180910390a25050565b600f60205260009081526040902054600160a060020a031681565b60075481565b60065481565b60055481565b6b1363156bbee3016d7000000081565b60005433600160a060020a03908116911614610c1757600080fd5b60105460ff1615610c2757600080fd5b610c2f6115b3565b610c37611726565b7f6823b073d48d6e3a7d385eeb601452d680e74bb46afe3255a7d778f3a9b1768160405160405180910390a16010805460ff19166001179055565b600154600160a060020a031681565b601354600160a060020a03166386d1a69f6040518163ffffffff1660e060020a028152600401600060405180830381600087803b1515610cc057600080fd5b6102c65a03f1151561079e57600080fd5b601154600160a060020a031681565b60025460a060020a900467ffffffffffffffff1681565b60075460065410155b90565b60105460ff1681565b600054600160a060020a031681565b6801ce97ca0f0d27120081565b6b0332e8a789bc7ef49e00000081565b600b6020526000908152604090205481565b6b0998b9f69d357cddda00000081565b601354600160a060020a031681565b600a6020526000908152604090205460ff1681565b601454600160a060020a031663d7ef9ff73360006040516020015260405160e060020a63ffffffff8416028152600160a060020a039091166004820152602401602060405180830381600087803b1515610dd757600080fd5b6102c65a03f11515610de857600080fd5b505050604051805190501515610e1b5760105460ff161515610e0957600080fd5b610e11610cf7565b15610e1b57600080fd5b601454600160a060020a031663fa89401a3360405160e060020a63ffffffff8416028152600160a060020a039091166004820152602401600060405180830381600087803b1515610cc057600080fd5b6b051e410c0f93fe543000000081565b6000805433600160a060020a03908116911614610e9757600080fd5b600160a060020a0382166000908152600a602052604090205460ff1615610ebd57600080fd5b600160a060020a0382166000908152600a60209081526040808320805460ff19169055600b909152812054111561101757610ef78261149a565b600854909150610f0d908263ffffffff61148816565b600855601454610f9690600160a060020a031663cb13cddb8460006040516020015260405160e060020a63ffffffff8416028152600160a060020a039091166004820152602401602060405180830381600087803b1515610f6d57600080fd5b6102c65a03f11515610f7e57600080fd5b5050506040518051600654915063ffffffff61148816565b600655600160a060020a038083166000908152600c60205260408082209190915560145490911690630944de7a9084905160e060020a63ffffffff8416028152600160a060020a039091166004820152602401600060405180830381600087803b151561100257600080fd5b6102c65a03f1151561101357600080fd5b5050505b81600160a060020a03167f1fa464b6cbee413585b7c04b477df9d9c611f02c7bdd4f787d25f8d45b58904360405160405180910390a25050565b6703157deefb820c0081565b600160a060020a038082166000908152600f6020526040812054909116151561108557600080fd5b50600160a060020a038082166000908152600f602052604090819020549091169081906386d1a69f90518163ffffffff1660e060020a028152600401600060405180830381600087803b15156110da57600080fd5b6102c65a03f115156110eb57600080fd5b5050505050565b600c6020526000908152604090205481565b60085481565b60095481565b60005433600160a060020a0390811691161461112b57600080fd5b600160a060020a038116151561114057600080fd5b600054600160a060020a0380831691167f8be0079c531659141344cd1fd0a4f28419497f9722a3daafe3b4186f6b6457e060405160405180910390a36000805473ffffffffffffffffffffffffffffffffffffffff1916600160a060020a0392909216919091179055565b6010546101009004600160a060020a031681565b601454600160a060020a031681565b600254600160a060020a031681565b600354600160a060020a0382166000908152600c6020526040812054909167ffffffffffffffff164211159082806703157deefb820c00611224843463ffffffff61129916565b101591506801ce97ca0f0d271200611242843463ffffffff61129916565b111590508380156112505750815b80156112595750805b9695505050505050565b6000808315156112765760009150611292565b5082820282848281151561128657fe5b041461128e57fe5b8091505b5092915050565b60008282018381101561128e57fe5b82600160a060020a031663a9059cbb838360006040516020015260405160e060020a63ffffffff8516028152600160a060020a0390921660048301526024820152604401602060405180830381600087803b151561130557600080fd5b6102c65a03f1151561131657600080fd5b50505060405180519050151561079e57fe5b6000811161133557600080fd5b600160a060020a0382166000908152600b602052604090205415156113b457600d8054600160a060020a0384166000908152600e60205260409020819055600181016113818382611930565b506000918252602090912001805473ffffffffffffffffffffffffffffffffffffffff1916600160a060020a0384161790555b600160a060020a0382166000908152600b60205260409020546113dd908263ffffffff61129916565b600160a060020a0383166000908152600b6020526040902055600954611409908263ffffffff61129916565b6009555050565b601454600160a060020a031663f340fa01348360405160e060020a63ffffffff8516028152600160a060020a0390911660048201526024016000604051808303818588803b151561146057600080fd5b6125ee5a03f115156110eb57600080fd5b600080828481151561147f57fe5b04949350505050565b60008282111561149457fe5b50900390565b600160a060020a0381166000908152600b6020526040812054819081908190116114c357600080fd5b600160a060020a0384166000908152600e6020526040902054600d80549193509060001981019081106114f257fe5b600091825260209091200154600d8054600160a060020a03909216918490811061151857fe5b6000918252602090912001805473ffffffffffffffffffffffffffffffffffffffff1916600160a060020a0392909216919091179055600d805460001901906115619082611930565b5050600160a060020a0383166000908152600b602052604090205460095461158f908263ffffffff61148816565b600955600160a060020a0384166000908152600b6020526040812055915050919050565b60008060005b600d5481101561079e57600d8054829081106115d157fe5b6000918252602080832090910154600160a060020a0316808352600b90915260409091205460095490945090925061160f908463ffffffff61148816565b600955600160a060020a0382166000908152600b602052604081205560085461163e908463ffffffff61148816565b60085560145461169e90600160a060020a031663cb13cddb8460006040516020015260405160e060020a63ffffffff8416028152600160a060020a039091166004820152602401602060405180830381600087803b1515610f6d57600080fd5b600655600160a060020a038083166000908152600c60205260408082209190915560145490911690630944de7a9084905160e060020a63ffffffff8416028152600160a060020a039091166004820152602401600060405180830381600087803b151561170a57600080fd5b6102c65a03f1151561171b57600080fd5b5050506001016115b9565b6009541561173357600080fd5b61173b610cf7565b156117f457611748611835565b601454600160a060020a03166343d726d66040518163ffffffff1660e060020a028152600401600060405180830381600087803b151561178757600080fd5b6102c65a03f1151561179857600080fd5b5050600254600160a060020a0316905063af35c6c76040518163ffffffff1660e060020a028152600401600060405180830381600087803b15156117db57600080fd5b6102c65a03f115156117ec57600080fd5b505050611833565b601454600160a060020a0316638c52dc416040518163ffffffff1660e060020a028152600401600060405180830381600087803b1515610cc057600080fd5b565b6009546002546000916118be91600160a060020a03166370a0823130856040516020015260405160e060020a63ffffffff8416028152600160a060020a039091166004820152602401602060405180830381600087803b151561189757600080fd5b6102c65a03f115156118a857600080fd5b505050604051805191905063ffffffff61148816565b600254909150600160a060020a03166342966c688260405160e060020a63ffffffff84160281526004810191909152602401600060405180830381600087803b151561190957600080fd5b6102c65a03f1151561191a57600080fd5b50505050565b60405161036580611a0083390190565b81548183558181151161079e5760008381526020902061079e918101908301610d0091905b808211156119695760008155600101611955565b5090565b6010546002546119a291600160a060020a0391821691610100909104166b0998b9f69d357cddda00000063ffffffff6112a816565b6013546002546119d191600160a060020a0391821691166b0332e8a789bc7ef49e00000063ffffffff6112a816565b60125460025461183391600160a060020a0391821691166a31a17e847807b1bc00000063ffffffff6112a81656006060604052341561000f57600080fd5b604051606080610365833981016040528080519190602001805191906020018051915050426001604060020a0382161161004857600080fd5b60008054600160a060020a0319908116600160a060020a0395861617825560018054909116939094169290921760a060020a60e060020a031916740100000000000000000000000000000000000000006001604060020a039290921691909102179091556102a99081906100bc90396000f3006060604052600436106100485763ffffffff60e060020a60003504166338af3eed811461004d57806386d1a69f1461007c578063b91d400114610091578063fc0c546a146100c1575b600080fd5b341561005857600080fd5b6100606100d4565b604051600160a060020a03909116815260200160405180910390f35b341561008757600080fd5b61008f6100e3565b005b341561009c57600080fd5b6100a46101c1565b60405167ffffffffffffffff909116815260200160405180910390f35b34156100cc57600080fd5b6100606101e9565b600154600160a060020a031681565b60015460009074010000000000000000000000000000000000000000900467ffffffffffffffff1642101561011757600080fd5b60008054600160a060020a0316906370a082319030906040516020015260405160e060020a63ffffffff8416028152600160a060020a039091166004820152602401602060405180830381600087803b151561017257600080fd5b6102c65a03f1151561018357600080fd5b50505060405180519150506000811161019b57600080fd5b6001546000546101be91600160a060020a0391821691168363ffffffff6101f816565b50565b60015474010000000000000000000000000000000000000000900467ffffffffffffffff1681565b600054600160a060020a031681565b82600160a060020a031663a9059cbb838360006040516020015260405160e060020a63ffffffff8516028152600160a060020a0390921660048301526024820152604401602060405180830381600087803b151561025557600080fd5b6102c65a03f1151561026657600080fd5b50505060405180519050151561027857fe5b5050505600a165627a7a72305820e3fcc96216ef2932201bf2663ad174dcd78d9053c3738037e4ded5ff3fd011930029a165627a7a723058202c964f11368a87073469590aa7903a03b8d2ee609b95d1935fc7c16cf587a23a002960606040526003805460a060020a60ff02191690556005805460ff19169055341561002957600080fd5b604051602080610ded8339810160405280805160038054600160a060020a03191633600160a060020a031617905560045550610d8190508061006c6000396000f3006060604052600436106101065763ffffffff7c010000000000000000000000000000000000000000000000000000000060003504166305d2035b811461010b57806306fdde0314610132578063095ea7b3146101bc57806318160ddd146101de57806323b872dd14610203578063313ce5671461022b578063355274ea1461023e57806340c10f191461025157806342966c6814610273578063661884631461028b57806370a08231146102ad5780637d64bcb4146102cc5780638da5cb5b146102df57806395d89b411461030e578063a9059cbb14610321578063af35c6c714610343578063d73dd62314610356578063dd62ed3e14610378578063f2fde38b1461039d575b600080fd5b341561011657600080fd5b61011e6103bc565b604051901515815260200160405180910390f35b341561013d57600080fd5b6101456103cc565b60405160208082528190810183818151815260200191508051906020019080838360005b83811015610181578082015183820152602001610169565b50505050905090810190601f1680156101ae5780820380516001836020036101000a031916815260200191505b509250505060405180910390f35b34156101c757600080fd5b61011e600160a060020a0360043516602435610403565b34156101e957600080fd5b6101f161046f565b60405190815260200160405180910390f35b341561020e57600080fd5b61011e600160a060020a0360043581169060243516604435610475565b341561023657600080fd5b6101f16104ba565b341561024957600080fd5b6101f16104bf565b341561025c57600080fd5b61011e600160a060020a03600435166024356104c5565b341561027e57600080fd5b61028960043561052c565b005b341561029657600080fd5b61011e600160a060020a03600435166024356105ed565b34156102b857600080fd5b6101f1600160a060020a03600435166106e7565b34156102d757600080fd5b61011e610702565b34156102ea57600080fd5b6102f261078d565b604051600160a060020a03909116815260200160405180910390f35b341561031957600080fd5b61014561079c565b341561032c57600080fd5b61011e600160a060020a03600435166024356107d3565b341561034e57600080fd5b610289610816565b341561036157600080fd5b61011e600160a060020a0360043516602435610840565b341561038357600080fd5b6101f1600160a060020a03600435811690602435166108e4565b34156103a857600080fd5b610289600160a060020a036004351661090f565b60035460a060020a900460ff1681565b60408051908101604052600781527f53656c664b657900000000000000000000000000000000000000000000000000602082015281565b600160a060020a03338116600081815260026020908152604080832094871680845294909152808220859055909291907f8c5be1e5ebec7d5bd14f71427d1e84f3dd0314c0f7b2291e5b200ac8c7c3b9259085905190815260200160405180910390a350600192915050565b60005481565b6005546000908490839060ff168061049a5750600354600160a060020a038381169116145b15156104a557600080fd5b6104b08686866109aa565b9695505050505050565b601281565b60045481565b60035460009033600160a060020a039081169116146104e357600080fd5b60035460a060020a900460ff16156104fa57600080fd5b600454600054610510908463ffffffff610b2c16565b111561051b57600080fd5b6105258383610b3b565b9392505050565b60035460009033600160a060020a0390811691161461054a57600080fd5b6000821161055757600080fd5b5033600160a060020a03811660009081526001602052604090205461057c9083610c48565b600160a060020a038216600090815260016020526040812091909155546105a9908363ffffffff610c4816565b600055600160a060020a0381167f696de425f79f4a40bc6d2122ca50507f0efbeabbff86a84871b7196ab8ea8df78360405190815260200160405180910390a25050565b600160a060020a0333811660009081526002602090815260408083209386168352929052908120548083111561064a57600160a060020a033381166000908152600260209081526040808320938816835292905290812055610681565b61065a818463ffffffff610c4816565b600160a060020a033381166000908152600260209081526040808320938916835292905220555b600160a060020a0333811660008181526002602090815260408083209489168084529490915290819020547f8c5be1e5ebec7d5bd14f71427d1e84f3dd0314c0f7b2291e5b200ac8c7c3b925915190815260200160405180910390a35060019392505050565b600160a060020a031660009081526001602052604090205490565b60035460009033600160a060020a0390811691161461072057600080fd5b60035460a060020a900460ff161561073757600080fd5b6003805474ff0000000000000000000000000000000000000000191660a060020a1790557fae5184fba832cb2b1f702aca6117b8d265eaf03ad33eb133f19dde0f5920fa0860405160405180910390a150600190565b600354600160a060020a031681565b60408051908101604052600381527f4b45590000000000000000000000000000000000000000000000000000000000602082015281565b6005546000903390839060ff16806107f85750600354600160a060020a038381169116145b151561080357600080fd5b61080d8585610c5a565b95945050505050565b60035433600160a060020a0390811691161461083157600080fd5b6005805460ff19166001179055565b600160a060020a033381166000908152600260209081526040808320938616835292905290812054610878908363ffffffff610b2c16565b600160a060020a0333811660008181526002602090815260408083209489168084529490915290819020849055919290917f8c5be1e5ebec7d5bd14f71427d1e84f3dd0314c0f7b2291e5b200ac8c7c3b92591905190815260200160405180910390a350600192915050565b600160a060020a03918216600090815260026020908152604080832093909416825291909152205490565b60035433600160a060020a0390811691161461092a57600080fd5b600160a060020a038116151561093f57600080fd5b600354600160a060020a0380831691167f8be0079c531659141344cd1fd0a4f28419497f9722a3daafe3b4186f6b6457e060405160405180910390a36003805473ffffffffffffffffffffffffffffffffffffffff1916600160a060020a0392909216919091179055565b6000600160a060020a03831615156109c157600080fd5b600160a060020a0384166000908152600160205260409020548211156109e657600080fd5b600160a060020a0380851660009081526002602090815260408083203390941683529290522054821115610a1957600080fd5b600160a060020a038416600090815260016020526040902054610a42908363ffffffff610c4816565b600160a060020a038086166000908152600160205260408082209390935590851681522054610a77908363ffffffff610b2c16565b600160a060020a03808516600090815260016020908152604080832094909455878316825260028152838220339093168252919091522054610abf908363ffffffff610c4816565b600160a060020a03808616600081815260026020908152604080832033861684529091529081902093909355908516917fddf252ad1be2c89b69c2b068fc378daa952ba7f163c4a11628f55a4df523b3ef9085905190815260200160405180910390a35060019392505050565b60008282018381101561052557fe5b60035460009033600160a060020a03908116911614610b5957600080fd5b60035460a060020a900460ff1615610b7057600080fd5b600054610b83908363ffffffff610b2c16565b6000908155600160a060020a038416815260016020526040902054610bae908363ffffffff610b2c16565b600160a060020a0384166000818152600160205260409081902092909255907f0f6798a560793a54c3bcfe86a93cde1e73087d944c0ea20544137d41213968859084905190815260200160405180910390a2600160a060020a03831660007fddf252ad1be2c89b69c2b068fc378daa952ba7f163c4a11628f55a4df523b3ef8460405190815260200160405180910390a350600192915050565b600082821115610c5457fe5b50900390565b6000600160a060020a0383161515610c7157600080fd5b600160a060020a033316600090815260016020526040902054821115610c9657600080fd5b600160a060020a033316600090815260016020526040902054610cbf908363ffffffff610c4816565b600160a060020a033381166000908152600160205260408082209390935590851681522054610cf4908363ffffffff610b2c16565b600160a060020a0380851660008181526001602052604090819020939093559133909116907fddf252ad1be2c89b69c2b068fc378daa952ba7f163c4a11628f55a4df523b3ef9085905190815260200160405180910390a3506001929150505600a165627a7a72305820f4aa48648e9101101da4cc2581c35b75120cc5d7c828bb9c7b9c68e7f43e3002002960606040526000600555341561001457600080fd5b6040516020806108ca8339810160405280805160008054600160a060020a03191633600160a060020a03908116919091179091559092508291508116151561005b57600080fd5b60028054600160a060020a031916600160a060020a03929092169190911760a060020a60ff021916905550610835806100956000396000f3006060604052600436106100c45763ffffffff7c01000000000000000000000000000000000000000000000000000000006000350416630944de7a81146100c957806343d726d6146100ea578063521eb273146100fd578063834620521461012c5780638c52dc41146101515780638da5cb5b14610164578063c19d93fb14610177578063cb13cddb146101ae578063ccc7139c146101cd578063d7ef9ff7146101ec578063f2fde38b1461021f578063f340fa011461023e578063fa89401a14610252575b600080fd5b34156100d457600080fd5b6100e8600160a060020a0360043516610271565b005b34156100f557600080fd5b6100e861037c565b341561010857600080fd5b61011061046c565b604051600160a060020a03909116815260200160405180910390f35b341561013757600080fd5b61013f61047b565b60405190815260200160405180910390f35b341561015c57600080fd5b6100e8610481565b341561016f57600080fd5b610110610512565b341561018257600080fd5b61018a610521565b6040518082600281111561019a57fe5b60ff16815260200191505060405180910390f35b34156101b957600080fd5b61013f600160a060020a0360043516610531565b34156101d857600080fd5b61013f600160a060020a0360043516610543565b34156101f757600080fd5b61020b600160a060020a0360043516610555565b604051901515815260200160405180910390f35b341561022a57600080fd5b6100e8600160a060020a036004351661056a565b6100e8600160a060020a0360043516610605565b341561025d57600080fd5b6100e8600160a060020a0360043516610689565b60005433600160a060020a0390811691161461028c57600080fd5b600160a060020a0381166000908152600360209081526040808320805460ff191660019081179091558252808320546004909252909120546102d39163ffffffff6107e116565b600160a060020a03821660009081526004602090815260408083209390935560019052205460055461030a9163ffffffff6107e116565b600555600160a060020a0381166000908152600160209081526040808320839055600490915290819020547f33fe97c80846d73581b45d16d271c783aece90180a00e06959a979923c1200019183919051600160a060020a03909216825260208201526040908101905180910390a150565b60005433600160a060020a0390811691161461039757600080fd5b60006002805460a060020a900460ff16908111156103b157fe5b146103bb57600080fd5b6002805474ff00000000000000000000000000000000000000001916740200000000000000000000000000000000000000001790557f1cdde67b72a90f19919ac732a437ac2f7a10fc128d28c2a6e525d89ce5cd9d3a60405160405180910390a1600254600554600160a060020a03918216916108fc91610445913016319063ffffffff6107f716565b9081150290604051600060405180830381858888f19350505050151561046a57600080fd5b565b600254600160a060020a031681565b60055481565b60005433600160a060020a0390811691161461049c57600080fd5b60006002805460a060020a900460ff16908111156104b657fe5b146104c057600080fd5b6002805474ff0000000000000000000000000000000000000000191660a060020a1790557f599d8e5a83cffb867d051598c4d70e805d59802d8081c1c7d6dffc5b6aca2b8960405160405180910390a1565b600054600160a060020a031681565b60025460a060020a900460ff1681565b60016020526000908152604090205481565b60046020526000908152604090205481565b60036020526000908152604090205460ff1681565b60005433600160a060020a0390811691161461058557600080fd5b600160a060020a038116151561059a57600080fd5b600054600160a060020a0380831691167f8be0079c531659141344cd1fd0a4f28419497f9722a3daafe3b4186f6b6457e060405160405180910390a36000805473ffffffffffffffffffffffffffffffffffffffff1916600160a060020a0392909216919091179055565b60005433600160a060020a0390811691161461062057600080fd5b60006002805460a060020a900460ff169081111561063a57fe5b1461064457600080fd5b600160a060020a03811660009081526001602052604090205461066d903463ffffffff6107e116565b600160a060020a03909116600090815260016020526040902055565b600060016002805460a060020a900460ff16908111156106a557fe5b14806106c95750600160a060020a03821660009081526003602052604090205460ff165b15156106d457600080fd5b60016002805460a060020a900460ff16908111156106ee57fe5b14156107135750600160a060020a03811660009081526001602052604090205461076f565b50600160a060020a038116600090815260046020526040902054600554610740908263ffffffff6107f716565b600555600160a060020a0382166000908152600360209081526040808320805460ff1916905560049091528120555b600160a060020a03821681156108fc0282604051600060405180830381858888f1935050505015156107a057600080fd5b81600160a060020a03167fd7dee2702d63ad89917b6a4da9981c90c4d24f8c2bdfd64c604ecae57d8d06518260405190815260200160405180910390a25050565b6000828201838110156107f057fe5b9392505050565b60008282111561080357fe5b509003905600a165627a7a7230582005c960394615c6554b1fce3839a0692296e8f02bb9c7eb427a0f30d86565586400296060604052341561000f57600080fd5b604051606080610365833981016040528080519190602001805191906020018051915050426001604060020a0382161161004857600080fd5b60008054600160a060020a0319908116600160a060020a0395861617825560018054909116939094169290921760a060020a60e060020a031916740100000000000000000000000000000000000000006001604060020a039290921691909102179091556102a99081906100bc90396000f3006060604052600436106100485763ffffffff60e060020a60003504166338af3eed811461004d57806386d1a69f1461007c578063b91d400114610091578063fc0c546a146100c1575b600080fd5b341561005857600080fd5b6100606100d4565b604051600160a060020a03909116815260200160405180910390f35b341561008757600080fd5b61008f6100e3565b005b341561009c57600080fd5b6100a46101c1565b60405167ffffffffffffffff909116815260200160405180910390f35b34156100cc57600080fd5b6100606101e9565b600154600160a060020a031681565b60015460009074010000000000000000000000000000000000000000900467ffffffffffffffff1642101561011757600080fd5b60008054600160a060020a0316906370a082319030906040516020015260405160e060020a63ffffffff8416028152600160a060020a039091166004820152602401602060405180830381600087803b151561017257600080fd5b6102c65a03f1151561018357600080fd5b50505060405180519150506000811161019b57600080fd5b6001546000546101be91600160a060020a0391821691168363ffffffff6101f816565b50565b60015474010000000000000000000000000000000000000000900467ffffffffffffffff1681565b600054600160a060020a031681565b82600160a060020a031663a9059cbb838360006040516020015260405160e060020a63ffffffff8516028152600160a060020a0390921660048301526024820152604401602060405180830381600087803b151561025557600080fd5b6102c65a03f1151561026657600080fd5b50505060405180519050151561027857fe5b5050505600a165627a7a72305820e3fcc96216ef2932201bf2663ad174dcd78d9053c3738037e4ded5ff3fd011930029",
  "source": "pragma solidity ^0.4.18;\n\nimport './SelfKeyToken.sol';\nimport './CrowdsaleConfig.sol';\nimport './KYCRefundVault.sol';\nimport 'zeppelin-solidity/contracts/math/SafeMath.sol';\nimport 'zeppelin-solidity/contracts/ownership/Ownable.sol';\nimport 'zeppelin-solidity/contracts/token/TokenTimelock.sol';\nimport 'zeppelin-solidity/contracts/token/SafeERC20.sol';\n\n\n/**\n * @title SelfKeyCrowdsale\n * @dev SelfKey Token Crowdsale implementation.\n */\n// solhint-disable-next-line max-states-count\ncontract SelfKeyCrowdsale is Ownable, CrowdsaleConfig {\n    using SafeMath for uint256;\n    using SafeERC20 for SelfKeyToken;\n\n    address public wallet;\n\n    // Token contract\n    SelfKeyToken public token;\n\n    uint64 public startTime;\n    uint64 public endTime;\n\n    // How many token units a buyer gets per wei\n    uint256 public rate;\n\n    // How many token units a buyer gets per wei during pre-sale\n    uint256 public presaleRate;\n\n    // Amount of raised money in wei\n    uint256 public weiRaised;\n\n    // Minimum cap expected to raise in wei\n    uint256 public goal;\n\n    // Total amount of tokens purchased, including pre-sale\n    uint256 public totalPurchased = 0;\n\n    // counter of how many tokens are still locked to non-verified participants\n    uint256 public lockedTotal = 0;\n\n    mapping(address => bool) public kycVerified;\n    mapping(address => uint256) public lockedBalance;\n    mapping(address => uint256) public weiContributed;\n\n    // an array for keeping track of all addresses still pending for KYC verification\n    address[] private lockedAddress;\n\n    // a mapping to retrieve the index of an address in lockedAddress arrray\n    mapping(address => uint256) private lockedIndex;\n\n    // a mapping of dynamically instantiated token timelocks for each pre-commitment beneficiary\n    mapping(address => address) public vestedTokens;\n\n    bool public isFinalized = false;\n\n    // Initial distribution addresses\n    address public foundationPool;\n    address public foundersPool;\n    address public legalExpensesWallet;\n\n    // Token Timelock\n    TokenTimelock public timelockFounders;\n\n    // Vault to hold funds until crowdsale is finalized. Allows refunding.\n    KYCRefundVault public vault;\n\n    // Crowdsale events\n    event TokenPurchase(\n        address indexed purchaser,\n        address indexed beneficiary,\n        uint256 value,\n        uint256 amount\n    );\n\n    event VerifiedKYC(address indexed participant);\n\n    event RejectedKYC(address indexed participant);\n\n    event AddedPrecommitment(\n        address indexed participant,\n        uint256 contribution,\n        uint256 bonusFactor,\n        uint256 _rate,\n        uint64 vestingMonths\n    );\n\n    event Finalized();\n\n    /**\n     * @dev Crowdsale contract constructor\n     * @param _startTime  Unix timestamp representing the crowdsale start time\n     * @param _endTime  Unix timestamp representing the crowdsale start time\n     * @param _rate  The number of tokens a buyer gets per wei\n     * @param _presaleRate  The number of tokens a pre-sale buyer gets per wei\n     * @param _wallet  what is this?\n     * @param _foundationPool  what is this?\n     * @param _foundersPool  what is this?\n     * @param _legalExpensesWallet  what is this?\n     * @param _goal  Minimum cap expected to raise in wei.\n     */\n    function SelfKeyCrowdsale(\n        uint64 _startTime,\n        uint64 _endTime,\n        uint256 _rate,\n        uint256 _presaleRate,\n        address _wallet,\n        address _foundationPool,\n        address _foundersPool,\n        address _legalExpensesWallet,\n        uint256 _goal\n    ) public\n    {\n        require(_endTime > _startTime);\n        require(_rate > 0);\n        require(_wallet != 0x0);\n\n        token = new SelfKeyToken(TOTAL_SUPPLY_CAP);\n        // mints all tokens and gives them to the crowdsale\n        token.mint(address(this), TOTAL_SUPPLY_CAP);\n        token.finishMinting();\n\n        startTime = _startTime;\n        endTime = _endTime;\n        rate = _rate;\n        presaleRate = _presaleRate;\n        wallet = _wallet;\n        goal = _goal;\n\n        vault = new KYCRefundVault(wallet);\n\n        foundationPool = _foundationPool;\n        foundersPool = _foundersPool;\n        legalExpensesWallet = _legalExpensesWallet;\n\n        // Set timelocks to 1 year after startTime\n        uint64 unlockAt = uint64(startTime + 31622400);\n        timelockFounders = new TokenTimelock(token, foundersPool, unlockAt);\n\n        distributeInitialFunds();\n    }\n\n    /**\n     * @dev Fallback function is used to buy tokens.\n     *      It's the only entry point since `buyTokens` is internal\n     */\n    function () public payable {\n        buyTokens(msg.sender);\n    }\n\n    /**\n     * @dev Low level token purchase. Only callable internally.\n     */\n    function buyTokens(address beneficiary) internal {\n        require(beneficiary != 0x0);\n        require(!isFinalized);\n        uint256 weiAmount = msg.value;\n        require(weiAmount != 0);\n        require(validPurchase(beneficiary));\n\n        // Calculate the token amount to be allocated\n        uint256 tokens = weiAmount.mul(rate);\n\n        // if pre-sale\n        if (now < startTime) { // solhint-disable-line not-rely-on-time\n            require(kycVerified[beneficiary]);\n\n            // re-calculate the token amount to be allocated\n            tokens = weiAmount.mul(presaleRate);\n\n            //  Presale_cap must not be exceeded\n            require(totalPurchased.add(tokens) <= PRESALE_CAP);\n        }\n\n        // Total sale cap must not be exceeded\n        require(totalPurchased.add(tokens) <= SALE_CAP);\n\n        // Update state\n        weiRaised = weiRaised.add(weiAmount);\n        weiContributed[beneficiary] = weiContributed[beneficiary].add(weiAmount);\n        totalPurchased = totalPurchased.add(tokens);\n\n        if (kycVerified[beneficiary]) {\n            token.safeTransfer(beneficiary, tokens);\n        } else {\n            addLockedBalance(beneficiary, tokens);\n        }\n\n        TokenPurchase(\n            msg.sender,\n            beneficiary,\n            weiAmount,\n            tokens\n        );\n        forwardFunds(beneficiary);\n    }\n\n    /**\n     * @dev Adds locked balance to a participant (purchased tokens pending for KYC verification)\n     * @param participant  Participant address\n     * @param tokens  Token amount to be allocated as locked balance\n     */\n    function addLockedBalance(address participant, uint256 tokens) internal {\n        require(tokens > 0);\n\n        // adds address to locked address array if it hasn't been added\n        if (lockedBalance[participant] == 0) {\n            lockedIndex[participant] = lockedAddress.length;\n            lockedAddress.push(participant);\n        }\n\n        lockedBalance[participant] = lockedBalance[participant].add(tokens);\n        lockedTotal = lockedTotal.add(tokens);\n    }\n\n    /**\n     * @dev Resets locked balance for a given participant\n     * @param participant  Participant address\n     */\n    function resetLockedBalance(address participant) internal returns (uint256) {\n        require(lockedBalance[participant] > 0);\n\n        // Address \"deletion\" from lockedAddress array\n        // it copies the last element to that index and \"deletes\" the last element\n        uint256 index = lockedIndex[participant];\n        lockedAddress[index] = lockedAddress[lockedAddress.length - 1];\n        lockedAddress.length = lockedAddress.length - 1;\n\n        uint256 tokens = lockedBalance[participant];\n\n        lockedTotal = lockedTotal.sub(lockedBalance[participant]);\n        lockedBalance[participant] = 0;\n\n        return tokens;\n    }\n\n    /**\n     * @dev Must be called after crowdsale ends, to do some extra finalization\n     *      work. Calls the contract's finalization function.\n     */\n    function finalize() public onlyOwner {\n        require(!isFinalized);\n\n        clearPendingKYC();\n        finalization();\n        Finalized();\n\n        isFinalized = true;\n    }\n\n    /**\n     * @dev Additional finalization logic. Enables token transfers.\n     */\n    function finalization() internal {\n        require(lockedTotal == 0); // requires there are no pending KYC checks\n\n        if (goalReached()) {\n            burnUnsold();\n            vault.close();\n            token.enableTransfers();\n        } else {\n            vault.enableRefunds();\n        }\n    }\n\n\n    /**\n     * @dev If crowdsale is unsuccessful, investors can claim refunds.\n     */\n    function claimRefund() public {\n        // requires sale to be finalized and goal not reached,\n        // unless sender has been enabled explicitly\n        if (!vault.refundEnabled(msg.sender)) {\n            require(isFinalized);\n            require(!goalReached());\n        }\n\n        vault.refund(msg.sender);\n    }\n\n    /**\n     * @dev If crowdsale is unsuccessful, participants can claim refunds\n     */\n    function goalReached() public constant returns (bool) {\n        return weiRaised >= goal;\n    }\n\n    /**\n     * @dev Release Founders' time-locked tokens\n     */\n    function releaseLockFounders() public {\n        timelockFounders.release();\n    }\n\n    /**\n     * @dev Release time-locked tokens for pre-commitment participants\n     */\n    function releaseLock(address participant) public {\n        require(vestedTokens[participant] != 0x0);\n        TokenTimelock timelock = TokenTimelock(vestedTokens[participant]);\n        timelock.release();\n    }\n\n    /**\n     * @dev Verifies KYC for given participant.\n     *      This enables token transfers from the participant address\n     */\n    function verifyKYC(address participant) public onlyOwner {\n        kycVerified[participant] = true;\n\n        if (lockedBalance[participant] > 0) {\n            uint256 tokens = resetLockedBalance(participant);\n            token.safeTransfer(participant, tokens);\n        }\n\n        VerifiedKYC(participant);\n    }\n\n    /**\n     * @dev Rejects KYC for given participant.\n     *      This disables token transfers from participant address\n     */\n    function rejectKYC(address participant) public onlyOwner {\n        require(!kycVerified[participant]);\n        kycVerified[participant] = false;\n\n        if (lockedBalance[participant] > 0) {\n            uint256 tokens = resetLockedBalance(participant);\n\n            totalPurchased = totalPurchased.sub(tokens);\n            weiRaised = weiRaised.sub(vault.deposited(participant));\n            weiContributed[participant] = 0;\n\n            // enable vault funds as refundable for this participant address\n            vault.enableKYCRefund(participant);\n        }\n\n        RejectedKYC(participant);\n    }\n\n    /**\n     * @dev Clears all pending KYC cases. This should be called by the finalization method\n     */\n    function clearPendingKYC() internal {\n        uint256 tokens;\n        address participant;\n\n        for(uint i; i < lockedAddress.length; i++) {\n            participant = lockedAddress[i];\n            tokens = lockedBalance[participant];\n\n            // reset overall locked token balance for this participant\n            lockedTotal = lockedTotal.sub(tokens);\n            lockedBalance[participant] = 0;\n\n            // revert contributions recorded for this participant\n            totalPurchased = totalPurchased.sub(tokens);\n            weiRaised = weiRaised.sub(vault.deposited(participant));\n            weiContributed[participant] = 0;\n\n            // enable vault funds as refundable for this participant address\n            vault.enableKYCRefund(participant);\n        }\n    }\n\n    /**\n    * @dev Adds an address for pre-sale commitments made off-chain.\n    * Contribution = 0 is valid, to just whitelist the address as KYC-verified.\n    */\n    function addPrecommitment(\n        address beneficiary,\n        uint256 weiContribution,\n        uint256 bonusFactor,\n        uint64 vestingPeriod\n    ) public onlyOwner\n    {\n        // requires to be on pre-sale\n        require(now < startTime); // solhint-disable-line not-rely-on-time\n        // requires unfinalized state (in case owner finalizes before startTime)\n        require(!isFinalized);\n        require(bonusFactor >= 0);\n        require(vestingPeriod >= 0);\n\n        kycVerified[beneficiary] = true;\n\n        if (weiContribution > 0) {\n            // calculate token allocation at bonus price\n            uint256 newRate = rate.add(rate.mul(bonusFactor).div(100));\n            uint256 tokens = newRate * weiContribution;\n            //  Presale_cap must not be exceeded\n            require(totalPurchased.add(tokens) <= PRESALE_CAP);\n\n            weiRaised = weiRaised.add(weiContribution);\n            weiContributed[beneficiary] = weiContributed[beneficiary].add(weiContribution);\n            totalPurchased = totalPurchased.add(tokens);\n\n            if (vestingPeriod == 0) {\n                token.safeTransfer(beneficiary, tokens);\n            } else {\n                uint64 vestingSeconds = vestingPeriod * 30 days;\n                uint256 half = tokens.div(2);\n                uint64 endTimeLock = uint64(startTime + vestingSeconds);\n                TokenTimelock timelock = new TokenTimelock(token, beneficiary, endTimeLock);\n                vestedTokens[beneficiary] = address(timelock);\n                token.safeTransfer(beneficiary, half);\n                token.safeTransfer(timelock, tokens.sub(half));\n            }\n\n            AddedPrecommitment(\n                beneficiary,\n                weiContribution,\n                bonusFactor,\n                newRate,\n                vestingPeriod\n            );\n        }\n    }\n\n    /**\n     * @dev Forwards funds to contract wallet.\n     */\n    function forwardFunds(address beneficiary) internal {\n        vault.deposit.value(msg.value)(beneficiary); // Store funds in \"refund vault\"\n    }\n\n    /**\n     * @dev Initial allocation of tokens\n     */\n    function distributeInitialFunds() internal {\n        token.safeTransfer(foundationPool, FOUNDATION_POOL_TOKENS);\n        token.safeTransfer(timelockFounders, FOUNDERS_TOKENS_VESTED);\n        token.safeTransfer(legalExpensesWallet, LEGAL_EXPENSES_TOKENS);\n    }\n\n    /**\n     * @dev Returns true if purchase is made during valid period\n     *      and contribution is between purchase caps\n     *\n     * @param beneficiary  The address buying the tokens.\n     */\n    function validPurchase(address beneficiary) internal view returns (bool) {\n        bool withinPeriod = now <= endTime; // solhint-disable-line not-rely-on-time\n        uint256 amount = weiContributed[beneficiary];\n        bool aboveMinPurchaseCap = amount.add(msg.value) >= PURCHASE_MIN_CAP_WEI;\n        bool belowMaxPurchaseCap = amount.add(msg.value) <= PURCHASE_MAX_CAP_WEI;\n        return withinPeriod && aboveMinPurchaseCap && belowMaxPurchaseCap;\n    }\n\n    /**\n     * @dev Burn all remaining (unsold) tokens.\n     *      This should be called after sale finalization\n     */\n    function burnUnsold() internal {\n        // All tokens held by this contract, except for those\n        // still locked to participants, get burned\n        uint256 tokens = token.balanceOf(this).sub(lockedTotal);\n        token.burn(tokens);\n    }\n}\n",
  "sourcePath": "/Users/edmund.to/kycchain/selfkey-token/contracts/SelfKeyCrowdsale.sol",
  "compiler": {
    "name": "solc",
    "version": "0.4.18+commit.9cf6e910.Emscripten.clang"
  },
  "schemaVersion": "1.0.1",
  "updatedAt": "2017-12-22T07:24:22.754Z"
}