{
  "contractName": "SelfKeyCrowdsale",
  "abi": [
    {
      "constant": true,
      "inputs": [],
      "name": "timelockFounders1",
      "outputs": [
        {
          "name": "",
          "type": "address"
        }
      ],
      "payable": false,
      "stateMutability": "view",
      "type": "function"
    },
    {
      "constant": false,
      "inputs": [
        {
          "name": "_ethPrice",
          "type": "uint256"
        }
      ],
      "name": "setEthPrice",
      "outputs": [],
      "payable": false,
      "stateMutability": "nonpayable",
      "type": "function"
    },
    {
      "constant": false,
      "inputs": [],
      "name": "releaseLockFounders1",
      "outputs": [],
      "payable": false,
      "stateMutability": "nonpayable",
      "type": "function"
    },
    {
      "constant": true,
      "inputs": [],
      "name": "SALE_CAP",
      "outputs": [
        {
          "name": "",
          "type": "uint256"
        }
      ],
      "payable": false,
      "stateMutability": "view",
      "type": "function"
    },
    {
      "constant": true,
      "inputs": [],
      "name": "legalExpensesWallet",
      "outputs": [
        {
          "name": "",
          "type": "address"
        }
      ],
      "payable": false,
      "stateMutability": "view",
      "type": "function"
    },
    {
      "constant": true,
      "inputs": [],
      "name": "MIN_TOKEN_UNIT",
      "outputs": [
        {
          "name": "",
          "type": "uint256"
        }
      ],
      "payable": false,
      "stateMutability": "view",
      "type": "function"
    },
    {
      "constant": true,
      "inputs": [],
      "name": "rate",
      "outputs": [
        {
          "name": "",
          "type": "uint256"
        }
      ],
      "payable": false,
      "stateMutability": "view",
      "type": "function"
    },
    {
      "constant": true,
      "inputs": [],
      "name": "LEGAL_EXPENSES_TOKENS",
      "outputs": [
        {
          "name": "",
          "type": "uint256"
        }
      ],
      "payable": false,
      "stateMutability": "view",
      "type": "function"
    },
    {
      "constant": true,
      "inputs": [],
      "name": "endTime",
      "outputs": [
        {
          "name": "",
          "type": "uint64"
        }
      ],
      "payable": false,
      "stateMutability": "view",
      "type": "function"
    },
    {
      "constant": false,
      "inputs": [
        {
          "name": "participant",
          "type": "address"
        }
      ],
      "name": "verifyKYC",
      "outputs": [],
      "payable": false,
      "stateMutability": "nonpayable",
      "type": "function"
    },
    {
      "constant": true,
      "inputs": [
        {
          "name": "",
          "type": "address"
        }
      ],
      "name": "vestedTokens",
      "outputs": [
        {
          "name": "",
          "type": "address"
        }
      ],
      "payable": false,
      "stateMutability": "view",
      "type": "function"
    },
    {
      "constant": false,
      "inputs": [
        {
          "name": "beneficiary",
          "type": "address"
        },
        {
          "name": "tokensAllocated",
          "type": "uint256"
        },
        {
          "name": "halfVesting",
          "type": "bool"
        }
      ],
      "name": "addPrecommitment",
      "outputs": [],
      "payable": false,
      "stateMutability": "nonpayable",
      "type": "function"
    },
    {
      "constant": true,
      "inputs": [],
      "name": "goal",
      "outputs": [
        {
          "name": "",
          "type": "uint256"
        }
      ],
      "payable": false,
      "stateMutability": "view",
      "type": "function"
    },
    {
      "constant": true,
      "inputs": [],
      "name": "TOTAL_SUPPLY_CAP",
      "outputs": [
        {
          "name": "",
          "type": "uint256"
        }
      ],
      "payable": false,
      "stateMutability": "view",
      "type": "function"
    },
    {
      "constant": false,
      "inputs": [],
      "name": "finalize",
      "outputs": [],
      "payable": false,
      "stateMutability": "nonpayable",
      "type": "function"
    },
    {
      "constant": true,
      "inputs": [],
      "name": "wallet",
      "outputs": [
        {
          "name": "",
          "type": "address"
        }
      ],
      "payable": false,
      "stateMutability": "view",
      "type": "function"
    },
    {
      "constant": true,
      "inputs": [],
      "name": "TOKEN_DECIMALS",
      "outputs": [
        {
          "name": "",
          "type": "uint256"
        }
      ],
      "payable": false,
      "stateMutability": "view",
      "type": "function"
    },
    {
      "constant": true,
      "inputs": [],
      "name": "FOUNDERS_TOKENS",
      "outputs": [
        {
          "name": "",
          "type": "uint256"
        }
      ],
      "payable": false,
      "stateMutability": "view",
      "type": "function"
    },
    {
      "constant": false,
      "inputs": [],
      "name": "releaseLockFounders2",
      "outputs": [],
      "payable": false,
      "stateMutability": "nonpayable",
      "type": "function"
    },
    {
      "constant": true,
      "inputs": [],
      "name": "timelockFounders2",
      "outputs": [
        {
          "name": "",
          "type": "address"
        }
      ],
      "payable": false,
      "stateMutability": "view",
      "type": "function"
    },
    {
      "constant": true,
      "inputs": [],
      "name": "foundersPool",
      "outputs": [
        {
          "name": "",
          "type": "address"
        }
      ],
      "payable": false,
      "stateMutability": "view",
      "type": "function"
    },
    {
      "constant": true,
      "inputs": [],
      "name": "FOUNDERS_TOKENS_VESTED_2",
      "outputs": [
        {
          "name": "",
          "type": "uint256"
        }
      ],
      "payable": false,
      "stateMutability": "view",
      "type": "function"
    },
    {
      "constant": true,
      "inputs": [],
      "name": "startTime",
      "outputs": [
        {
          "name": "",
          "type": "uint64"
        }
      ],
      "payable": false,
      "stateMutability": "view",
      "type": "function"
    },
    {
      "constant": true,
      "inputs": [],
      "name": "goalReached",
      "outputs": [
        {
          "name": "",
          "type": "bool"
        }
      ],
      "payable": false,
      "stateMutability": "view",
      "type": "function"
    },
    {
      "constant": true,
      "inputs": [],
      "name": "isFinalized",
      "outputs": [
        {
          "name": "",
          "type": "bool"
        }
      ],
      "payable": false,
      "stateMutability": "view",
      "type": "function"
    },
    {
      "constant": true,
      "inputs": [],
      "name": "owner",
      "outputs": [
        {
          "name": "",
          "type": "address"
        }
      ],
      "payable": false,
      "stateMutability": "view",
      "type": "function"
    },
    {
      "constant": true,
      "inputs": [],
      "name": "FOUNDERS_TOKENS_VESTED_1",
      "outputs": [
        {
          "name": "",
          "type": "uint256"
        }
      ],
      "payable": false,
      "stateMutability": "view",
      "type": "function"
    },
    {
      "constant": true,
      "inputs": [
        {
          "name": "",
          "type": "address"
        }
      ],
      "name": "lockedBalance",
      "outputs": [
        {
          "name": "",
          "type": "uint256"
        }
      ],
      "payable": false,
      "stateMutability": "view",
      "type": "function"
    },
    {
      "constant": true,
      "inputs": [],
      "name": "FOUNDATION_POOL_TOKENS",
      "outputs": [
        {
          "name": "",
          "type": "uint256"
        }
      ],
      "payable": false,
      "stateMutability": "view",
      "type": "function"
    },
    {
      "constant": true,
      "inputs": [
        {
          "name": "",
          "type": "address"
        }
      ],
      "name": "kycVerified",
      "outputs": [
        {
          "name": "",
          "type": "bool"
        }
      ],
      "payable": false,
      "stateMutability": "view",
      "type": "function"
    },
    {
      "constant": true,
      "inputs": [],
      "name": "PURCHASER_MIN_CAP_USD",
      "outputs": [
        {
          "name": "",
          "type": "uint256"
        }
      ],
      "payable": false,
      "stateMutability": "view",
      "type": "function"
    },
    {
      "constant": false,
      "inputs": [],
      "name": "claimRefund",
      "outputs": [],
      "payable": false,
      "stateMutability": "nonpayable",
      "type": "function"
    },
    {
      "constant": false,
      "inputs": [
        {
          "name": "participant",
          "type": "address"
        }
      ],
      "name": "rejectKYC",
      "outputs": [],
      "payable": false,
      "stateMutability": "nonpayable",
      "type": "function"
    },
    {
      "constant": false,
      "inputs": [
        {
          "name": "participant",
          "type": "address"
        }
      ],
      "name": "releaseLock",
      "outputs": [],
      "payable": false,
      "stateMutability": "nonpayable",
      "type": "function"
    },
    {
      "constant": true,
      "inputs": [
        {
          "name": "",
          "type": "address"
        }
      ],
      "name": "weiContributed",
      "outputs": [
        {
          "name": "",
          "type": "uint256"
        }
      ],
      "payable": false,
      "stateMutability": "view",
      "type": "function"
    },
    {
      "constant": true,
      "inputs": [],
      "name": "totalPurchased",
      "outputs": [
        {
          "name": "",
          "type": "uint256"
        }
      ],
      "payable": false,
      "stateMutability": "view",
      "type": "function"
    },
    {
      "constant": true,
      "inputs": [],
      "name": "minCapWei",
      "outputs": [
        {
          "name": "",
          "type": "uint256"
        }
      ],
      "payable": false,
      "stateMutability": "view",
      "type": "function"
    },
    {
      "constant": true,
      "inputs": [],
      "name": "TOKEN_PRICE_THOUSANDTH",
      "outputs": [
        {
          "name": "",
          "type": "uint256"
        }
      ],
      "payable": false,
      "stateMutability": "view",
      "type": "function"
    },
    {
      "constant": true,
      "inputs": [],
      "name": "lockedTotal",
      "outputs": [
        {
          "name": "",
          "type": "uint256"
        }
      ],
      "payable": false,
      "stateMutability": "view",
      "type": "function"
    },
    {
      "constant": true,
      "inputs": [],
      "name": "maxCapWei",
      "outputs": [
        {
          "name": "",
          "type": "uint256"
        }
      ],
      "payable": false,
      "stateMutability": "view",
      "type": "function"
    },
    {
      "constant": false,
      "inputs": [
        {
          "name": "newOwner",
          "type": "address"
        }
      ],
      "name": "transferOwnership",
      "outputs": [],
      "payable": false,
      "stateMutability": "nonpayable",
      "type": "function"
    },
    {
      "constant": true,
      "inputs": [],
      "name": "foundationPool",
      "outputs": [
        {
          "name": "",
          "type": "address"
        }
      ],
      "payable": false,
      "stateMutability": "view",
      "type": "function"
    },
    {
      "constant": true,
      "inputs": [],
      "name": "PURCHASER_MAX_CAP_USD",
      "outputs": [
        {
          "name": "",
          "type": "uint256"
        }
      ],
      "payable": false,
      "stateMutability": "view",
      "type": "function"
    },
    {
      "constant": true,
      "inputs": [],
      "name": "vault",
      "outputs": [
        {
          "name": "",
          "type": "address"
        }
      ],
      "payable": false,
      "stateMutability": "view",
      "type": "function"
    },
    {
      "constant": true,
      "inputs": [],
      "name": "token",
      "outputs": [
        {
          "name": "",
          "type": "address"
        }
      ],
      "payable": false,
      "stateMutability": "view",
      "type": "function"
    },
    {
      "constant": true,
      "inputs": [],
      "name": "ethPrice",
      "outputs": [
        {
          "name": "",
          "type": "uint256"
        }
      ],
      "payable": false,
      "stateMutability": "view",
      "type": "function"
    },
    {
      "inputs": [
        {
          "name": "_startTime",
          "type": "uint64"
        },
        {
          "name": "_endTime",
          "type": "uint64"
        },
        {
          "name": "_wallet",
          "type": "address"
        },
        {
          "name": "_foundationPool",
          "type": "address"
        },
        {
          "name": "_foundersPool",
          "type": "address"
        },
        {
          "name": "_legalExpensesWallet",
          "type": "address"
        },
        {
          "name": "_goal",
          "type": "uint256"
        }
      ],
      "payable": false,
      "stateMutability": "nonpayable",
      "type": "constructor"
    },
    {
      "payable": true,
      "stateMutability": "payable",
      "type": "fallback"
    },
    {
      "anonymous": false,
      "inputs": [
        {
          "indexed": true,
          "name": "purchaser",
          "type": "address"
        },
        {
          "indexed": true,
          "name": "beneficiary",
          "type": "address"
        },
        {
          "indexed": false,
          "name": "value",
          "type": "uint256"
        },
        {
          "indexed": false,
          "name": "amount",
          "type": "uint256"
        }
      ],
      "name": "TokenPurchase",
      "type": "event"
    },
    {
      "anonymous": false,
      "inputs": [
        {
          "indexed": true,
          "name": "participant",
          "type": "address"
        }
      ],
      "name": "VerifiedKYC",
      "type": "event"
    },
    {
      "anonymous": false,
      "inputs": [
        {
          "indexed": true,
          "name": "participant",
          "type": "address"
        }
      ],
      "name": "RejectedKYC",
      "type": "event"
    },
    {
      "anonymous": false,
      "inputs": [
        {
          "indexed": true,
          "name": "participant",
          "type": "address"
        },
        {
          "indexed": false,
          "name": "tokensAllocated",
          "type": "uint256"
        }
      ],
      "name": "AddedPrecommitment",
      "type": "event"
    },
    {
      "anonymous": false,
      "inputs": [],
      "name": "Finalized",
      "type": "event"
    },
    {
      "anonymous": false,
      "inputs": [
        {
          "indexed": true,
          "name": "previousOwner",
          "type": "address"
        },
        {
          "indexed": true,
          "name": "newOwner",
          "type": "address"
        }
      ],
      "name": "OwnershipTransferred",
      "type": "event"
    }
  ],
  "bytecode": "0x606060405261ca586005556701c93c15df978a0060065567594dbc422d871e0060075561030960085560006009819055600a556011805460ff1916905534156200004857600080fd5b60405160e08062003c4d8339810160405280805191906020018051919060200180519190602001805191906020018051919060200180519190602001805160008054600160a060020a03191633600160a060020a03161781559092509050806001604060020a0389811690891611620000c057600080fd5b600160a060020a0387161515620000d657600080fd5b6b1363156bbee3016d70000000620000ed62000623565b908152602001604051809103906000f08015156200010a57600080fd5b60028054600160a060020a031916600160a060020a039283161790819055166340c10f19306b1363156bbee3016d700000006000604051602001526040517c010000000000000000000000000000000000000000000000000000000063ffffffff8516028152600160a060020a0390921660048301526024820152604401602060405180830381600087803b1515620001a257600080fd5b6102c65a03f11515620001b457600080fd5b50505060405180515050600254600160a060020a0316637d64bcb46000604051602001526040518163ffffffff167c0100000000000000000000000000000000000000000000000000000000028152600401602060405180830381600087803b15156200022057600080fd5b6102c65a03f115156200023257600080fd5b505050604051805150506002805460a060020a60e060020a031916740100000000000000000000000000000000000000006001604060020a038c811691909102919091179091556003805467ffffffffffffffff1916918a1691909117905560018054600160a060020a0319908116600160a060020a038a811691909117928390556011805461010060a860020a0319166101008b8416021790556012805483168983161790556013805490921687821617909155600485905516620002f762000634565b600160a060020a039091168152602001604051809103906000f08015156200031e57600080fd5b60168054600160a060020a031916600160a060020a039283161790556002546012547401000000000000000000000000000000000000000082046001604060020a031662ed4e00810195506301da9c000193509082169116836200038162000645565b600160a060020a0393841681529190921660208201526001604060020a0390911660408083019190915260609091019051809103906000f0801515620003c657600080fd5b60148054600160a060020a031916600160a060020a03928316179055600254601254908216911682620003f862000645565b600160a060020a0393841681529190921660208201526001604060020a0390911660408083019190915260609091019051809103906000f08015156200043d57600080fd5b60158054600160a060020a031916600160a060020a039283161790556012546002546200048a9290811691166b0110f837d8942a518a000000640100000000620005828102620012711704565b601154600254620004c991600160a060020a0391821691610100909104166b0998b9f69d357cddda000000640100000000620012716200058282021704565b6014546002546200050291600160a060020a0391821691166b0110f837d8942a518a000000640100000000620012716200058282021704565b6015546002546200053b91600160a060020a0391821691166b0110f837d8942a518a000000640100000000620012716200058282021704565b6013546002546200057391600160a060020a0391821691166a31a17e847807b1bc000000640100000000620012716200058282021704565b50505050505050505062000656565b82600160a060020a031663a9059cbb83836000604051602001526040517c010000000000000000000000000000000000000000000000000000000063ffffffff8516028152600160a060020a0390921660048301526024820152604401602060405180830381600087803b1515620005f957600080fd5b6102c65a03f115156200060b57600080fd5b5050506040518051905015156200061e57fe5b505050565b604051610ded806200223183390190565b6040516108ca806200301e83390190565b60405161036580620038e883390190565b611bcb80620006666000396000f3006060604052600436106102145763ffffffff60e060020a600035041662594e3b811461021f5780629f92621461024e57806309d929d6146102645780630b45e8db146102775780631ea349c01461029c5780632803d8e5146102af5780632c4e722e146102c25780632f3085d6146102d55780633197cbb6146102e857806338d16011146103185780633dee0397146103375780633e5b5e3914610356578063401938831461037d57806348931352146103905780634bb278f3146103a3578063521eb273146103b65780635b7f415c146103c957806365f6d6a2146103dc5780636a4113c7146103ef5780636ee16d9214610402578063766b640c14610415578063769f194f146103dc57806378e97925146104285780637d3d65221461043b5780638d4e4083146104625780638da5cb5b1461047557806397fdf5f2146103dc5780639ae697bf146104885780639e43692c146104a7578063a5410a66146104ba578063adf1d4bd146104d9578063b5545a3c146104ec578063c42e5888146104ff578063d1c469161461051e578063d5307b0c1461053d578063e632c2f31461055c578063ebc204261461056f578063f0757a9114610582578063f145c73b14610595578063f1c4ecb4146105a8578063f2fde38b146105bb578063f907f5fc146105da578063f9ca63e8146105ed578063fbfa77cf14610600578063fc0c546a14610613578063ff186b2e14610626575b61021d33610639565b005b341561022a57600080fd5b610232610887565b604051600160a060020a03909116815260200160405180910390f35b341561025957600080fd5b61021d600435610896565b341561026f57600080fd5b61021d610952565b341561028257600080fd5b61028a6109a7565b60405190815260200160405180910390f35b34156102a757600080fd5b6102326109b7565b34156102ba57600080fd5b61028a6109c6565b34156102cd57600080fd5b61028a6109d2565b34156102e057600080fd5b61028a6109d8565b34156102f357600080fd5b6102fb6109e7565b60405167ffffffffffffffff909116815260200160405180910390f35b341561032357600080fd5b61021d600160a060020a03600435166109f7565b341561034257600080fd5b610232600160a060020a0360043516610aaa565b341561036157600080fd5b61021d600160a060020a03600435166024356044351515610ac5565b341561038857600080fd5b61028a610cb2565b341561039b57600080fd5b61028a610cb8565b34156103ae57600080fd5b61021d610cc8565b34156103c157600080fd5b610232610d5d565b34156103d457600080fd5b61028a610d6c565b34156103e757600080fd5b61028a610d71565b34156103fa57600080fd5b61021d610d81565b341561040d57600080fd5b610232610dc0565b341561042057600080fd5b610232610dcf565b341561043357600080fd5b6102fb610dde565b341561044657600080fd5b61044e610df5565b604051901515815260200160405180910390f35b341561046d57600080fd5b61044e610e01565b341561048057600080fd5b610232610e0a565b341561049357600080fd5b61028a600160a060020a0360043516610e19565b34156104b257600080fd5b61028a610e2b565b34156104c557600080fd5b61044e600160a060020a0360043516610e3b565b34156104e457600080fd5b61028a610e50565b34156104f757600080fd5b61021d610e55565b341561050a57600080fd5b61021d600160a060020a0360043516610f42565b341561052957600080fd5b61021d600160a060020a036004351661108f565b341561054857600080fd5b61028a600160a060020a0360043516611124565b341561056757600080fd5b61028a611136565b341561057a57600080fd5b61028a61113c565b341561058d57600080fd5b61028a611142565b34156105a057600080fd5b61028a611147565b34156105b357600080fd5b61028a61114d565b34156105c657600080fd5b61021d600160a060020a0360043516611153565b34156105e557600080fd5b6102326111ee565b34156105f857600080fd5b61028a611202565b341561060b57600080fd5b610232611208565b341561061e57600080fd5b610232611217565b341561063157600080fd5b61028a611226565b600254600090819060a060020a900467ffffffffffffffff1642101561065e57600080fd5b60035467ffffffffffffffff16421061067657600080fd5b60115460ff161561068657600080fd5b600160a060020a038316151561069b57600080fd5b3415156106a757600080fd5b6005543492506106be90839063ffffffff61122c16565b600160a060020a0384166000908152600d60205260409020549091506106ea908363ffffffff61126216565b600160a060020a0384166000908152600d6020526040902055600954610716908263ffffffff61126216565b60098190556b0665d14f1378fde93c00000090111561073457600080fd5b600654600160a060020a0384166000908152600d6020526040902054101561075b57600080fd5b600754600160a060020a0384166000908152600d6020526040902054111561078257600080fd5b600160a060020a0383166000908152600b602052604090205460ff16156107c5576002546107c090600160a060020a0316848363ffffffff61127116565b6107cf565b6107cf83826112f1565b601654600160a060020a031663f340fa01348560405160e060020a63ffffffff8516028152600160a060020a0390911660048201526024016000604051808303818588803b151561081f57600080fd5b6125ee5a03f1151561083057600080fd5b5050505082600160a060020a031633600160a060020a03167f623b3804fa71d67900d064613da8f94b9617215ee90799290593e1745087ad18848460405191825260208201526040908101905180910390a3505050565b601454600160a060020a031681565b60005433600160a060020a039081169116146108b157600080fd5b60025460a060020a900467ffffffffffffffff1642106108d057600080fd5b600081116108dd57600080fd5b6008819055610905600f6108f9836103e863ffffffff61122c16565b9063ffffffff6113d916565b600555600854610928906108f96064670de0b6b3a764000063ffffffff61122c16565b60065560085461094c906108f9611388670de0b6b3a764000063ffffffff61122c16565b60075550565b601454600160a060020a03166386d1a69f6040518163ffffffff1660e060020a028152600401600060405180830381600087803b151561099157600080fd5b6102c65a03f115156109a257600080fd5b505050565b6b0665d14f1378fde93c00000081565b601354600160a060020a031681565b670de0b6b3a764000081565b60055481565b6a31a17e847807b1bc00000081565b60035467ffffffffffffffff1681565b6000805433600160a060020a03908116911614610a1357600080fd5b600160a060020a0382166000908152600b60209081526040808320805460ff19166001179055600c9091528120541115610a7057610a50826113f0565b600254909150610a7090600160a060020a0316838363ffffffff61127116565b81600160a060020a03167f98cc2c535b6060b431d35630893358290dcd38687f6487e2882d33195502080560405160405180910390a25050565b601060205260009081526040902054600160a060020a031681565b60008054819081908190819033600160a060020a03908116911614610ae957600080fd5b60025460a060020a900467ffffffffffffffff164210610b0857600080fd5b600160a060020a0388166000908152600b60205260409020805460ff19166001179055600954879550610b41908663ffffffff61126216565b6009558515610c4e576002805462ed4e00955060a060020a900467ffffffffffffffff1685019350610b749086906113d9565b600254909250600160a060020a03168884610b8d6117ed565b600160a060020a03938416815291909216602082015267ffffffffffffffff90911660408083019190915260609091019051809103906000f0801515610bd257600080fd5b600160a060020a038981166000908152601060205260409020805473ffffffffffffffffffffffffffffffffffffffff1916838316179055600254919250610c1c91168984611271565b610c4981610c30878563ffffffff61150916565b600254600160a060020a0316919063ffffffff61127116565b610c6b565b600254610c6b90600160a060020a0316898763ffffffff61127116565b87600160a060020a03167fd4cab39bf07f5b24c1fa485061de865fae1bb7f0bcf434dd70bf1a33689ca4068660405190815260200160405180910390a25050505050505050565b60045481565b6b1363156bbee3016d7000000081565b60005433600160a060020a03908116911614610ce357600080fd5b60115460ff1615610cf357600080fd5b60025460a060020a900467ffffffffffffffff164211610d1257600080fd5b610d1a61151b565b610d2261162e565b7f6823b073d48d6e3a7d385eeb601452d680e74bb46afe3255a7d778f3a9b1768160405160405180910390a16011805460ff19166001179055565b600154600160a060020a031681565b601281565b6b0110f837d8942a518a00000081565b601554600160a060020a03166386d1a69f6040518163ffffffff1660e060020a028152600401600060405180830381600087803b151561099157600080fd5b601554600160a060020a031681565b601254600160a060020a031681565b60025460a060020a900467ffffffffffffffff1681565b60045460095410155b90565b60115460ff1681565b600054600160a060020a031681565b600c6020526000908152604090205481565b6b0998b9f69d357cddda00000081565b600b6020526000908152604090205460ff1681565b606481565b601654600160a060020a031663d7ef9ff73360006040516020015260405160e060020a63ffffffff8416028152600160a060020a039091166004820152602401602060405180830381600087803b1515610eae57600080fd5b6102c65a03f11515610ebf57600080fd5b505050604051805190501515610ef25760115460ff161515610ee057600080fd5b610ee8610df5565b15610ef257600080fd5b601654600160a060020a031663fa89401a3360405160e060020a63ffffffff8416028152600160a060020a039091166004820152602401600060405180830381600087803b151561099157600080fd5b6000805433600160a060020a03908116911614610f5e57600080fd5b600160a060020a0382166000908152600b602052604090205460ff1615610f8457600080fd5b600160a060020a0382166000908152600b60209081526040808320805460ff19169055600c909152812054111561105557610fbe826113f0565b600954909150610fd4908263ffffffff61150916565b600955600160a060020a038083166000908152600d60205260408082209190915560165490911690630944de7a9084905160e060020a63ffffffff8416028152600160a060020a039091166004820152602401600060405180830381600087803b151561104057600080fd5b6102c65a03f1151561105157600080fd5b5050505b81600160a060020a03167f1fa464b6cbee413585b7c04b477df9d9c611f02c7bdd4f787d25f8d45b58904360405160405180910390a25050565b600160a060020a0380821660009081526010602052604081205490911615156110b757600080fd5b50600160a060020a0380821660009081526010602052604090819020549091169081906386d1a69f90518163ffffffff1660e060020a028152600401600060405180830381600087803b151561110c57600080fd5b6102c65a03f1151561111d57600080fd5b5050505050565b600d6020526000908152604090205481565b60095481565b60065481565b600f81565b600a5481565b60075481565b60005433600160a060020a0390811691161461116e57600080fd5b600160a060020a038116151561118357600080fd5b600054600160a060020a0380831691167f8be0079c531659141344cd1fd0a4f28419497f9722a3daafe3b4186f6b6457e060405160405180910390a36000805473ffffffffffffffffffffffffffffffffffffffff1916600160a060020a0392909216919091179055565b6011546101009004600160a060020a031681565b61138881565b601654600160a060020a031681565b600254600160a060020a031681565b60085481565b60008083151561123f576000915061125b565b5082820282848281151561124f57fe5b041461125757fe5b8091505b5092915050565b60008282018381101561125757fe5b82600160a060020a031663a9059cbb838360006040516020015260405160e060020a63ffffffff8516028152600160a060020a0390921660048301526024820152604401602060405180830381600087803b15156112ce57600080fd5b6102c65a03f115156112df57600080fd5b5050506040518051905015156109a257fe5b600081116112fe57600080fd5b600160a060020a0382166000908152600c6020526040902054151561137d57600e8054600160a060020a0384166000908152600f602052604090208190556001810161134a83826117fd565b506000918252602090912001805473ffffffffffffffffffffffffffffffffffffffff1916600160a060020a0384161790555b600160a060020a0382166000908152600c60205260409020546113a6908263ffffffff61126216565b600160a060020a0383166000908152600c6020526040902055600a546113d2908263ffffffff61126216565b600a555050565b60008082848115156113e757fe5b04949350505050565b600160a060020a0381166000908152600c60205260408120548190819081901161141957600080fd5b600160a060020a0384166000908152600f6020526040902054600e805491935090600019810190811061144857fe5b600091825260209091200154600e8054600160a060020a03909216918490811061146e57fe5b6000918252602090912001805473ffffffffffffffffffffffffffffffffffffffff1916600160a060020a0392909216919091179055600e805460001901906114b790826117fd565b5050600160a060020a0383166000908152600c6020526040902054600a546114e5908263ffffffff61150916565b600a55600160a060020a0384166000908152600c6020526040812055915050919050565b60008282111561151557fe5b50900390565b60008060005b600e548110156109a257600e80548290811061153957fe5b6000918252602080832090910154600160a060020a0316808352600c909152604090912054600a54909450909250611577908463ffffffff61150916565b600a55600160a060020a0382166000908152600c60205260408120556009546115a6908463ffffffff61150916565b600955600160a060020a038083166000908152600d60205260408082209190915560165490911690630944de7a9084905160e060020a63ffffffff8416028152600160a060020a039091166004820152602401600060405180830381600087803b151561161257600080fd5b6102c65a03f1151561162357600080fd5b505050600101611521565b600a541561163b57600080fd5b611643610df5565b156116fc5761165061173d565b601654600160a060020a03166343d726d66040518163ffffffff1660e060020a028152600401600060405180830381600087803b151561168f57600080fd5b6102c65a03f115156116a057600080fd5b5050600254600160a060020a0316905063af35c6c76040518163ffffffff1660e060020a028152600401600060405180830381600087803b15156116e357600080fd5b6102c65a03f115156116f457600080fd5b50505061173b565b601654600160a060020a0316638c52dc416040518163ffffffff1660e060020a028152600401600060405180830381600087803b151561099157600080fd5b565b600254600160a060020a03166342966c68816370a082313060006040516020015260405160e060020a63ffffffff8416028152600160a060020a039091166004820152602401602060405180830381600087803b151561179c57600080fd5b6102c65a03f115156117ad57600080fd5b5050506040518051905060405160e060020a63ffffffff84160281526004810191909152602401600060405180830381600087803b151561099157600080fd5b6040516103658061183b83390190565b8154818355818115116109a2576000838152602090206109a2918101908301610dfe91905b808211156118365760008155600101611822565b509056006060604052341561000f57600080fd5b604051606080610365833981016040528080519190602001805191906020018051915050426001604060020a0382161161004857600080fd5b60008054600160a060020a0319908116600160a060020a0395861617825560018054909116939094169290921760a060020a60e060020a031916740100000000000000000000000000000000000000006001604060020a039290921691909102179091556102a99081906100bc90396000f3006060604052600436106100485763ffffffff60e060020a60003504166338af3eed811461004d57806386d1a69f1461007c578063b91d400114610091578063fc0c546a146100c1575b600080fd5b341561005857600080fd5b6100606100d4565b604051600160a060020a03909116815260200160405180910390f35b341561008757600080fd5b61008f6100e3565b005b341561009c57600080fd5b6100a46101c1565b60405167ffffffffffffffff909116815260200160405180910390f35b34156100cc57600080fd5b6100606101e9565b600154600160a060020a031681565b60015460009074010000000000000000000000000000000000000000900467ffffffffffffffff1642101561011757600080fd5b60008054600160a060020a0316906370a082319030906040516020015260405160e060020a63ffffffff8416028152600160a060020a039091166004820152602401602060405180830381600087803b151561017257600080fd5b6102c65a03f1151561018357600080fd5b50505060405180519150506000811161019b57600080fd5b6001546000546101be91600160a060020a0391821691168363ffffffff6101f816565b50565b60015474010000000000000000000000000000000000000000900467ffffffffffffffff1681565b600054600160a060020a031681565b82600160a060020a031663a9059cbb838360006040516020015260405160e060020a63ffffffff8516028152600160a060020a0390921660048301526024820152604401602060405180830381600087803b151561025557600080fd5b6102c65a03f1151561026657600080fd5b50505060405180519050151561027857fe5b5050505600a165627a7a72305820e3fcc96216ef2932201bf2663ad174dcd78d9053c3738037e4ded5ff3fd011930029a165627a7a72305820fe43361ad65734e4804e98855218bbb20bc90d368916a4cd43b4294345a44ee4002960606040526003805460a060020a60ff02191690556005805460ff19169055341561002957600080fd5b604051602080610ded8339810160405280805160038054600160a060020a03191633600160a060020a031617905560045550610d8190508061006c6000396000f3006060604052600436106101065763ffffffff7c010000000000000000000000000000000000000000000000000000000060003504166305d2035b811461010b57806306fdde0314610132578063095ea7b3146101bc57806318160ddd146101de57806323b872dd14610203578063313ce5671461022b578063355274ea1461023e57806340c10f191461025157806342966c6814610273578063661884631461028b57806370a08231146102ad5780637d64bcb4146102cc5780638da5cb5b146102df57806395d89b411461030e578063a9059cbb14610321578063af35c6c714610343578063d73dd62314610356578063dd62ed3e14610378578063f2fde38b1461039d575b600080fd5b341561011657600080fd5b61011e6103bc565b604051901515815260200160405180910390f35b341561013d57600080fd5b6101456103cc565b60405160208082528190810183818151815260200191508051906020019080838360005b83811015610181578082015183820152602001610169565b50505050905090810190601f1680156101ae5780820380516001836020036101000a031916815260200191505b509250505060405180910390f35b34156101c757600080fd5b61011e600160a060020a0360043516602435610403565b34156101e957600080fd5b6101f161046f565b60405190815260200160405180910390f35b341561020e57600080fd5b61011e600160a060020a0360043581169060243516604435610475565b341561023657600080fd5b6101f16104ba565b341561024957600080fd5b6101f16104bf565b341561025c57600080fd5b61011e600160a060020a03600435166024356104c5565b341561027e57600080fd5b61028960043561052c565b005b341561029657600080fd5b61011e600160a060020a03600435166024356105ed565b34156102b857600080fd5b6101f1600160a060020a03600435166106e7565b34156102d757600080fd5b61011e610702565b34156102ea57600080fd5b6102f261078d565b604051600160a060020a03909116815260200160405180910390f35b341561031957600080fd5b61014561079c565b341561032c57600080fd5b61011e600160a060020a03600435166024356107d3565b341561034e57600080fd5b610289610816565b341561036157600080fd5b61011e600160a060020a0360043516602435610840565b341561038357600080fd5b6101f1600160a060020a03600435811690602435166108e4565b34156103a857600080fd5b610289600160a060020a036004351661090f565b60035460a060020a900460ff1681565b60408051908101604052600781527f53656c664b657900000000000000000000000000000000000000000000000000602082015281565b600160a060020a03338116600081815260026020908152604080832094871680845294909152808220859055909291907f8c5be1e5ebec7d5bd14f71427d1e84f3dd0314c0f7b2291e5b200ac8c7c3b9259085905190815260200160405180910390a350600192915050565b60005481565b6005546000908490839060ff168061049a5750600354600160a060020a038381169116145b15156104a557600080fd5b6104b08686866109aa565b9695505050505050565b601281565b60045481565b60035460009033600160a060020a039081169116146104e357600080fd5b60035460a060020a900460ff16156104fa57600080fd5b600454600054610510908463ffffffff610b2c16565b111561051b57600080fd5b6105258383610b3b565b9392505050565b60035460009033600160a060020a0390811691161461054a57600080fd5b6000821161055757600080fd5b5033600160a060020a03811660009081526001602052604090205461057c9083610c48565b600160a060020a038216600090815260016020526040812091909155546105a9908363ffffffff610c4816565b600055600160a060020a0381167f696de425f79f4a40bc6d2122ca50507f0efbeabbff86a84871b7196ab8ea8df78360405190815260200160405180910390a25050565b600160a060020a0333811660009081526002602090815260408083209386168352929052908120548083111561064a57600160a060020a033381166000908152600260209081526040808320938816835292905290812055610681565b61065a818463ffffffff610c4816565b600160a060020a033381166000908152600260209081526040808320938916835292905220555b600160a060020a0333811660008181526002602090815260408083209489168084529490915290819020547f8c5be1e5ebec7d5bd14f71427d1e84f3dd0314c0f7b2291e5b200ac8c7c3b925915190815260200160405180910390a35060019392505050565b600160a060020a031660009081526001602052604090205490565b60035460009033600160a060020a0390811691161461072057600080fd5b60035460a060020a900460ff161561073757600080fd5b6003805474ff0000000000000000000000000000000000000000191660a060020a1790557fae5184fba832cb2b1f702aca6117b8d265eaf03ad33eb133f19dde0f5920fa0860405160405180910390a150600190565b600354600160a060020a031681565b60408051908101604052600381527f4b45590000000000000000000000000000000000000000000000000000000000602082015281565b6005546000903390839060ff16806107f85750600354600160a060020a038381169116145b151561080357600080fd5b61080d8585610c5a565b95945050505050565b60035433600160a060020a0390811691161461083157600080fd5b6005805460ff19166001179055565b600160a060020a033381166000908152600260209081526040808320938616835292905290812054610878908363ffffffff610b2c16565b600160a060020a0333811660008181526002602090815260408083209489168084529490915290819020849055919290917f8c5be1e5ebec7d5bd14f71427d1e84f3dd0314c0f7b2291e5b200ac8c7c3b92591905190815260200160405180910390a350600192915050565b600160a060020a03918216600090815260026020908152604080832093909416825291909152205490565b60035433600160a060020a0390811691161461092a57600080fd5b600160a060020a038116151561093f57600080fd5b600354600160a060020a0380831691167f8be0079c531659141344cd1fd0a4f28419497f9722a3daafe3b4186f6b6457e060405160405180910390a36003805473ffffffffffffffffffffffffffffffffffffffff1916600160a060020a0392909216919091179055565b6000600160a060020a03831615156109c157600080fd5b600160a060020a0384166000908152600160205260409020548211156109e657600080fd5b600160a060020a0380851660009081526002602090815260408083203390941683529290522054821115610a1957600080fd5b600160a060020a038416600090815260016020526040902054610a42908363ffffffff610c4816565b600160a060020a038086166000908152600160205260408082209390935590851681522054610a77908363ffffffff610b2c16565b600160a060020a03808516600090815260016020908152604080832094909455878316825260028152838220339093168252919091522054610abf908363ffffffff610c4816565b600160a060020a03808616600081815260026020908152604080832033861684529091529081902093909355908516917fddf252ad1be2c89b69c2b068fc378daa952ba7f163c4a11628f55a4df523b3ef9085905190815260200160405180910390a35060019392505050565b60008282018381101561052557fe5b60035460009033600160a060020a03908116911614610b5957600080fd5b60035460a060020a900460ff1615610b7057600080fd5b600054610b83908363ffffffff610b2c16565b6000908155600160a060020a038416815260016020526040902054610bae908363ffffffff610b2c16565b600160a060020a0384166000818152600160205260409081902092909255907f0f6798a560793a54c3bcfe86a93cde1e73087d944c0ea20544137d41213968859084905190815260200160405180910390a2600160a060020a03831660007fddf252ad1be2c89b69c2b068fc378daa952ba7f163c4a11628f55a4df523b3ef8460405190815260200160405180910390a350600192915050565b600082821115610c5457fe5b50900390565b6000600160a060020a0383161515610c7157600080fd5b600160a060020a033316600090815260016020526040902054821115610c9657600080fd5b600160a060020a033316600090815260016020526040902054610cbf908363ffffffff610c4816565b600160a060020a033381166000908152600160205260408082209390935590851681522054610cf4908363ffffffff610b2c16565b600160a060020a0380851660008181526001602052604090819020939093559133909116907fddf252ad1be2c89b69c2b068fc378daa952ba7f163c4a11628f55a4df523b3ef9085905190815260200160405180910390a3506001929150505600a165627a7a72305820625b8574522fae26c32ba79e108bf6ca21639ba167c7c2c2747d0785b777143d002960606040526000600555341561001457600080fd5b6040516020806108ca8339810160405280805160008054600160a060020a03191633600160a060020a03908116919091179091559092508291508116151561005b57600080fd5b60028054600160a060020a031916600160a060020a03929092169190911760a060020a60ff021916905550610835806100956000396000f3006060604052600436106100c45763ffffffff7c01000000000000000000000000000000000000000000000000000000006000350416630944de7a81146100c957806343d726d6146100ea578063521eb273146100fd578063834620521461012c5780638c52dc41146101515780638da5cb5b14610164578063c19d93fb14610177578063cb13cddb146101ae578063ccc7139c146101cd578063d7ef9ff7146101ec578063f2fde38b1461021f578063f340fa011461023e578063fa89401a14610252575b600080fd5b34156100d457600080fd5b6100e8600160a060020a0360043516610271565b005b34156100f557600080fd5b6100e861037c565b341561010857600080fd5b61011061046c565b604051600160a060020a03909116815260200160405180910390f35b341561013757600080fd5b61013f61047b565b60405190815260200160405180910390f35b341561015c57600080fd5b6100e8610481565b341561016f57600080fd5b610110610512565b341561018257600080fd5b61018a610521565b6040518082600281111561019a57fe5b60ff16815260200191505060405180910390f35b34156101b957600080fd5b61013f600160a060020a0360043516610531565b34156101d857600080fd5b61013f600160a060020a0360043516610543565b34156101f757600080fd5b61020b600160a060020a0360043516610555565b604051901515815260200160405180910390f35b341561022a57600080fd5b6100e8600160a060020a036004351661056a565b6100e8600160a060020a0360043516610605565b341561025d57600080fd5b6100e8600160a060020a0360043516610689565b60005433600160a060020a0390811691161461028c57600080fd5b600160a060020a0381166000908152600360209081526040808320805460ff191660019081179091558252808320546004909252909120546102d39163ffffffff6107e116565b600160a060020a03821660009081526004602090815260408083209390935560019052205460055461030a9163ffffffff6107e116565b600555600160a060020a0381166000908152600160209081526040808320839055600490915290819020547f33fe97c80846d73581b45d16d271c783aece90180a00e06959a979923c1200019183919051600160a060020a03909216825260208201526040908101905180910390a150565b60005433600160a060020a0390811691161461039757600080fd5b60006002805460a060020a900460ff16908111156103b157fe5b146103bb57600080fd5b6002805474ff00000000000000000000000000000000000000001916740200000000000000000000000000000000000000001790557f1cdde67b72a90f19919ac732a437ac2f7a10fc128d28c2a6e525d89ce5cd9d3a60405160405180910390a1600254600554600160a060020a03918216916108fc91610445913016319063ffffffff6107f716565b9081150290604051600060405180830381858888f19350505050151561046a57600080fd5b565b600254600160a060020a031681565b60055481565b60005433600160a060020a0390811691161461049c57600080fd5b60006002805460a060020a900460ff16908111156104b657fe5b146104c057600080fd5b6002805474ff0000000000000000000000000000000000000000191660a060020a1790557f599d8e5a83cffb867d051598c4d70e805d59802d8081c1c7d6dffc5b6aca2b8960405160405180910390a1565b600054600160a060020a031681565b60025460a060020a900460ff1681565b60016020526000908152604090205481565b60046020526000908152604090205481565b60036020526000908152604090205460ff1681565b60005433600160a060020a0390811691161461058557600080fd5b600160a060020a038116151561059a57600080fd5b600054600160a060020a0380831691167f8be0079c531659141344cd1fd0a4f28419497f9722a3daafe3b4186f6b6457e060405160405180910390a36000805473ffffffffffffffffffffffffffffffffffffffff1916600160a060020a0392909216919091179055565b60005433600160a060020a0390811691161461062057600080fd5b60006002805460a060020a900460ff169081111561063a57fe5b1461064457600080fd5b600160a060020a03811660009081526001602052604090205461066d903463ffffffff6107e116565b600160a060020a03909116600090815260016020526040902055565b600060016002805460a060020a900460ff16908111156106a557fe5b14806106c95750600160a060020a03821660009081526003602052604090205460ff165b15156106d457600080fd5b60016002805460a060020a900460ff16908111156106ee57fe5b14156107135750600160a060020a03811660009081526001602052604090205461076f565b50600160a060020a038116600090815260046020526040902054600554610740908263ffffffff6107f716565b600555600160a060020a0382166000908152600360209081526040808320805460ff1916905560049091528120555b600160a060020a03821681156108fc0282604051600060405180830381858888f1935050505015156107a057600080fd5b81600160a060020a03167fd7dee2702d63ad89917b6a4da9981c90c4d24f8c2bdfd64c604ecae57d8d06518260405190815260200160405180910390a25050565b6000828201838110156107f057fe5b9392505050565b60008282111561080357fe5b509003905600a165627a7a7230582005c960394615c6554b1fce3839a0692296e8f02bb9c7eb427a0f30d86565586400296060604052341561000f57600080fd5b604051606080610365833981016040528080519190602001805191906020018051915050426001604060020a0382161161004857600080fd5b60008054600160a060020a0319908116600160a060020a0395861617825560018054909116939094169290921760a060020a60e060020a031916740100000000000000000000000000000000000000006001604060020a039290921691909102179091556102a99081906100bc90396000f3006060604052600436106100485763ffffffff60e060020a60003504166338af3eed811461004d57806386d1a69f1461007c578063b91d400114610091578063fc0c546a146100c1575b600080fd5b341561005857600080fd5b6100606100d4565b604051600160a060020a03909116815260200160405180910390f35b341561008757600080fd5b61008f6100e3565b005b341561009c57600080fd5b6100a46101c1565b60405167ffffffffffffffff909116815260200160405180910390f35b34156100cc57600080fd5b6100606101e9565b600154600160a060020a031681565b60015460009074010000000000000000000000000000000000000000900467ffffffffffffffff1642101561011757600080fd5b60008054600160a060020a0316906370a082319030906040516020015260405160e060020a63ffffffff8416028152600160a060020a039091166004820152602401602060405180830381600087803b151561017257600080fd5b6102c65a03f1151561018357600080fd5b50505060405180519150506000811161019b57600080fd5b6001546000546101be91600160a060020a0391821691168363ffffffff6101f816565b50565b60015474010000000000000000000000000000000000000000900467ffffffffffffffff1681565b600054600160a060020a031681565b82600160a060020a031663a9059cbb838360006040516020015260405160e060020a63ffffffff8516028152600160a060020a0390921660048301526024820152604401602060405180830381600087803b151561025557600080fd5b6102c65a03f1151561026657600080fd5b50505060405180519050151561027857fe5b5050505600a165627a7a72305820e3fcc96216ef2932201bf2663ad174dcd78d9053c3738037e4ded5ff3fd011930029",
  "source": "pragma solidity ^0.4.18;\n\nimport './SelfKeyToken.sol';\nimport './CrowdsaleConfig.sol';\nimport './KYCRefundVault.sol';\nimport 'zeppelin-solidity/contracts/math/SafeMath.sol';\nimport 'zeppelin-solidity/contracts/ownership/Ownable.sol';\nimport 'zeppelin-solidity/contracts/token/TokenTimelock.sol';\nimport 'zeppelin-solidity/contracts/token/SafeERC20.sol';\n\n\n/**\n * @title SelfKeyCrowdsale\n * @dev SelfKey Token Crowdsale implementation.\n */\n// solhint-disable-next-line max-states-count\ncontract SelfKeyCrowdsale is Ownable, CrowdsaleConfig {\n    using SafeMath for uint256;\n    using SafeERC20 for SelfKeyToken;\n\n    address public wallet;\n\n    // Token contract\n    SelfKeyToken public token;\n\n    uint64 public startTime;\n    uint64 public endTime;\n\n    // Minimum tokens expected to sell\n    uint256 public goal;\n\n    // How many tokens a buyer gets per ETH\n    uint256 public rate = 51800;\n\n    // Caps per purchaser during public sale\n    uint256 public minCapWei = 128700129000000000;\n    uint256 public maxCapWei = 6435006435000000000;\n\n    // ETH price in USD, can be later updated until start date\n    uint256 public ethPrice = 777;\n\n    // Total amount of tokens purchased, including pre-sale\n    uint256 public totalPurchased = 0;\n\n    // counter of how many tokens are still locked to non-verified participants\n    uint256 public lockedTotal = 0;\n\n    mapping(address => bool) public kycVerified;\n    mapping(address => uint256) public lockedBalance;\n    mapping(address => uint256) public weiContributed;\n\n    // an array for keeping track of all addresses still pending for KYC verification\n    address[] private lockedAddress;\n\n    // a mapping to retrieve the index of an address in lockedAddress arrray\n    mapping(address => uint256) private lockedIndex;\n\n    // a mapping of dynamically instantiated token timelocks for each pre-commitment beneficiary\n    mapping(address => address) public vestedTokens;\n\n    bool public isFinalized = false;\n\n    // Initial distribution addresses\n    address public foundationPool;\n    address public foundersPool;\n    address public legalExpensesWallet;\n\n    // Token Timelocks\n    TokenTimelock public timelockFounders1;\n    TokenTimelock public timelockFounders2;\n\n    // Vault to hold funds until crowdsale is finalized. Allows refunding.\n    KYCRefundVault public vault;\n\n    // Crowdsale events\n    event TokenPurchase(\n        address indexed purchaser,\n        address indexed beneficiary,\n        uint256 value,\n        uint256 amount\n    );\n\n    event VerifiedKYC(address indexed participant);\n\n    event RejectedKYC(address indexed participant);\n\n    event AddedPrecommitment(\n        address indexed participant,\n        uint256 tokensAllocated\n    );\n\n    event Finalized();\n\n    /**\n     * @dev Crowdsale contract constructor\n     * @param _startTime  Unix timestamp representing the crowdsale start time\n     * @param _endTime  Unix timestamp representing the crowdsale start time\n     * @param _wallet  address where all contributions should go to\n     * @param _foundationPool  SelfKey Foundation wallet address\n     * @param _foundersPool  Founding team token distribution pool\n     * @param _legalExpensesWallet  Address for allocatin legal expenses fee\n     * @param _goal  Minimum amount of tokens expected to sell.\n     */\n    function SelfKeyCrowdsale(\n        uint64 _startTime,\n        uint64 _endTime,\n        address _wallet,\n        address _foundationPool,\n        address _foundersPool,\n        address _legalExpensesWallet,\n        uint256 _goal\n    ) public\n    {\n        require(_endTime > _startTime);\n        require(_wallet != 0x0);\n\n        token = new SelfKeyToken(TOTAL_SUPPLY_CAP);\n        // mints all tokens and gives them to the crowdsale\n        token.mint(address(this), TOTAL_SUPPLY_CAP);\n        token.finishMinting();\n\n        startTime = _startTime;\n        endTime = _endTime;\n        wallet = _wallet;\n        foundationPool = _foundationPool;\n        foundersPool = _foundersPool;\n        legalExpensesWallet = _legalExpensesWallet;\n        goal = _goal;\n\n        vault = new KYCRefundVault(wallet);\n\n        // Set timelockss to 6 months and a year after startTime, respectively\n        uint64 unlockAt1 = uint64(startTime + 15552000);\n        uint64 unlockAt2 = uint64(startTime + 31104000);\n        timelockFounders1 = new TokenTimelock(token, foundersPool, unlockAt1);\n        timelockFounders2 = new TokenTimelock(token, foundersPool, unlockAt2);\n\n        // Genesis allocation of tokens\n        token.safeTransfer(foundersPool, FOUNDERS_TOKENS);\n        token.safeTransfer(foundationPool, FOUNDATION_POOL_TOKENS);\n        token.safeTransfer(timelockFounders1, FOUNDERS_TOKENS_VESTED_1);\n        token.safeTransfer(timelockFounders2, FOUNDERS_TOKENS_VESTED_2);\n        token.safeTransfer(legalExpensesWallet, LEGAL_EXPENSES_TOKENS);\n    }\n\n    /**\n     * @dev Fallback function is used to buy tokens.\n     *      It's the only entry point since `buyTokens` is internal\n     */\n    function () public payable {\n        buyTokens(msg.sender);\n    }\n\n    /**\n     * @dev Low level token purchase. Only callable internally.\n     */\n    function buyTokens(address beneficiary) internal {\n        require(now >= startTime);\n        require(now < endTime);\n        require(!isFinalized);\n        require(beneficiary != 0x0);\n        require(msg.value != 0);\n\n        // Calculate the token amount to be allocated\n        uint256 weiAmount = msg.value;\n        uint256 tokens = weiAmount.mul(rate);\n\n        // Update state\n        weiContributed[beneficiary] = weiContributed[beneficiary].add(weiAmount);\n        totalPurchased = totalPurchased.add(tokens);\n\n        require(totalPurchased <= SALE_CAP);\n        require(weiContributed[beneficiary] >= minCapWei);\n        require(weiContributed[beneficiary] <= maxCapWei);\n\n        if (kycVerified[beneficiary]) {\n            token.safeTransfer(beneficiary, tokens);\n        } else {\n            addLockedBalance(beneficiary, tokens);\n        }\n\n        // Sends ETH contribution to the RefundVault\n        vault.deposit.value(msg.value)(beneficiary);\n\n        TokenPurchase(\n            msg.sender,\n            beneficiary,\n            weiAmount,\n            tokens\n        );\n    }\n\n    /**\n     * @dev Updates the ETH/USD conversion rate as long as the public sale hasn't started\n     * @param _ethPrice - Updated conversion rate\n     */\n    function setEthPrice(uint256 _ethPrice) public onlyOwner {\n        require(now < startTime);\n        require(_ethPrice > 0);\n\n        ethPrice = _ethPrice;\n        rate = ethPrice.mul(1000).div(TOKEN_PRICE_THOUSANDTH);\n        minCapWei = PURCHASER_MIN_CAP_USD.mul(MIN_TOKEN_UNIT).div(ethPrice);\n        maxCapWei = PURCHASER_MAX_CAP_USD.mul(MIN_TOKEN_UNIT).div(ethPrice);\n    }\n\n    /**\n     * @dev Adds locked balance to a participant (purchased tokens pending for KYC verification)\n     * @param participant  Participant address\n     * @param tokens  Token amount to be allocated as locked balance\n     */\n    function addLockedBalance(address participant, uint256 tokens) internal {\n        require(tokens > 0);\n\n        // adds address to locked address array if it hasn't been added\n        if (lockedBalance[participant] == 0) {\n            lockedIndex[participant] = lockedAddress.length;\n            lockedAddress.push(participant);\n        }\n\n        lockedBalance[participant] = lockedBalance[participant].add(tokens);\n        lockedTotal = lockedTotal.add(tokens);\n    }\n\n    /**\n     * @dev Resets locked balance for a given participant\n     * @param participant  Participant address\n     */\n    function resetLockedBalance(address participant) internal returns (uint256) {\n        require(lockedBalance[participant] > 0);\n\n        // Address \"deletion\" from lockedAddress array\n        // it copies the last element to that index and \"deletes\" the last element\n        uint256 index = lockedIndex[participant];\n        lockedAddress[index] = lockedAddress[lockedAddress.length - 1];\n        lockedAddress.length = lockedAddress.length - 1;\n\n        uint256 tokens = lockedBalance[participant];\n\n        lockedTotal = lockedTotal.sub(lockedBalance[participant]);\n        lockedBalance[participant] = 0;\n\n        return tokens;\n    }\n\n    /**\n     * @dev Must be called after crowdsale ends, to do some extra finalization\n     *      work. Calls the contract's finalization function.\n     */\n    function finalize() public onlyOwner {\n        require(!isFinalized);\n        require(now > startTime);\n\n        clearPendingKYC();\n        finalization();\n        Finalized();\n\n        isFinalized = true;\n    }\n\n    /**\n     * @dev Additional finalization logic. Enables token transfers.\n     */\n    function finalization() internal {\n        require(lockedTotal == 0); // requires there are no pending KYC checks\n\n        if (goalReached()) {\n            burnUnsold();\n            vault.close();\n            token.enableTransfers();\n        } else {\n            vault.enableRefunds();\n        }\n    }\n\n\n    /**\n     * @dev If crowdsale is unsuccessful, investors can claim refunds.\n     */\n    function claimRefund() public {\n        // requires sale to be finalized and goal not reached,\n        // unless sender has been enabled explicitly\n        if (!vault.refundEnabled(msg.sender)) {\n            require(isFinalized);\n            require(!goalReached());\n        }\n\n        vault.refund(msg.sender);\n    }\n\n    /**\n     * @dev If crowdsale is unsuccessful, participants can claim refunds\n     */\n    function goalReached() public constant returns (bool) {\n        return totalPurchased >= goal;\n    }\n\n    /**\n     * @dev Release Founders' time-locked tokens\n     */\n    function releaseLockFounders1() public {\n        timelockFounders1.release();\n    }\n\n    function releaseLockFounders2() public {\n        timelockFounders2.release();\n    }\n\n    /**\n     * @dev Release time-locked tokens for pre-commitment participants\n     */\n    function releaseLock(address participant) public {\n        require(vestedTokens[participant] != 0x0);\n        TokenTimelock timelock = TokenTimelock(vestedTokens[participant]);\n        timelock.release();\n    }\n\n    /**\n     * @dev Verifies KYC for given participant.\n     *      This enables token transfers from the participant address\n     */\n    function verifyKYC(address participant) public onlyOwner {\n        kycVerified[participant] = true;\n\n        if (lockedBalance[participant] > 0) {\n            uint256 tokens = resetLockedBalance(participant);\n            token.safeTransfer(participant, tokens);\n        }\n\n        VerifiedKYC(participant);\n    }\n\n    /**\n     * @dev Rejects KYC for given participant.\n     *      This disables token transfers from participant address\n     */\n    function rejectKYC(address participant) public onlyOwner {\n        require(!kycVerified[participant]);\n        kycVerified[participant] = false;\n\n        if (lockedBalance[participant] > 0) {\n            uint256 tokens = resetLockedBalance(participant);\n\n            totalPurchased = totalPurchased.sub(tokens);\n            weiContributed[participant] = 0;\n\n            // enable vault funds as refundable for this participant address\n            vault.enableKYCRefund(participant);\n        }\n\n        RejectedKYC(participant);\n    }\n\n    /**\n     * @dev Clears all pending KYC cases. This should be called by the finalization method\n     */\n    function clearPendingKYC() internal {\n        uint256 tokens;\n        address participant;\n\n        for(uint i; i < lockedAddress.length; i++) {\n            participant = lockedAddress[i];\n            tokens = lockedBalance[participant];\n\n            // reset overall locked token balance for this participant\n            lockedTotal = lockedTotal.sub(tokens);\n            lockedBalance[participant] = 0;\n\n            // revert contributions recorded for this participant\n            totalPurchased = totalPurchased.sub(tokens);\n            weiContributed[participant] = 0;\n\n            // enable vault funds as refundable for this participant address\n            vault.enableKYCRefund(participant);\n        }\n    }\n\n    /**\n    * @dev Adds an address for pre-sale commitments made off-chain.\n    * @param beneficiary  Address of the already verified participant\n    * @param tokensAllocated  Exact amount of KEY tokens (including decimal places) to allocate\n    * @param halfVesting  determines whether the half the tokens will be time-locked or not\n    */\n    function addPrecommitment(\n        address beneficiary,\n        uint256 tokensAllocated,\n        bool halfVesting\n    ) public onlyOwner\n    {\n        // requires to be on pre-sale\n        require(now < startTime); // solhint-disable-line not-rely-on-time\n\n        // updates state\n        kycVerified[beneficiary] = true;    // KYC was already done off-chain\n        uint256 tokens = tokensAllocated;\n        totalPurchased = totalPurchased.add(tokens);\n\n        if (halfVesting) {\n            // Calculates vesting release date for 6 months after start time\n            uint64 vestingSeconds = 6 * 30 days;\n            uint64 endTimeLock = uint64(startTime + vestingSeconds);\n\n            // Sets a timelock for half the tokens allocated\n            uint256 half = tokens.div(2);\n            TokenTimelock timelock = new TokenTimelock(token, beneficiary, endTimeLock);\n            vestedTokens[beneficiary] = address(timelock);\n            token.safeTransfer(beneficiary, half);\n            token.safeTransfer(timelock, tokens.sub(half));\n        } else {\n            token.safeTransfer(beneficiary, tokens);\n        }\n\n        AddedPrecommitment(\n            beneficiary,\n            tokens\n        );\n    }\n\n    /**\n     * @dev Burn all remaining (unsold) tokens.\n     *      This should be called after sale finalization\n     */\n    function burnUnsold() internal {\n        // All tokens held by this contract get burned\n        token.burn(token.balanceOf(this));\n    }\n}\n",
  "sourcePath": "/Users/edmund.to/kycchain/selfkey-token/contracts/SelfKeyCrowdsale.sol",
  "compiler": {
    "name": "solc",
    "version": "0.4.18+commit.9cf6e910.Emscripten.clang"
  },
  "schemaVersion": "1.0.1",
  "updatedAt": "2017-12-27T08:25:42.085Z"
}